:100000000C94E1030C94FE030C94FE030C94FE0389
:100010000C94FE030C94FE030C94FE030C94FE035C
:100020000C94FE030C94FE030C94442A0C94002AB6
:100030000C94412B0C94FE030C94FE030C94FE03D1
:100040000C94FE030C94FE030C94FE030C94FE032C
:100050000C94FE030C941D2B0C94FE030C94FE03D5
:100060000C94FE030C94FE030C94FE030C94FE030C
:100070000C94FE030C94FE030C94FE030C94FE03FC
:100080000C94FE030C94FE030C94FE030C94FE03EC
:100090000C94FE030C94FE030C94FE030C94FE03DC
:1000A0000C94FE030C94FE030C94FE0305010980DE
:1000B000A101850319012AB700150126B700950192
:1000C00075108100C0050C0901A101850419012AE0
:1000D000A002150126A002950175108100C00660DE
:1000E000FF0961A1010962150026FF00952075082E
:1000F00081020963150026FF00952075089102C052
:1001000005010906A101050719E029E715002501E8
:10011000950875018102950175088101050719008F
:1001200029FF150026FF00950675088100050819AE
:1001300001290515002501950575019102950175A7
:10014000039101C01E0F0500047F3F1F6432146439
:100150003214783C1E1E140A05FD377A585A0000E6
:1001600004E6D6B4460200210116000000742FE513
:10017000A3E004BC016F5D003D8889C65436C317F7
:100180004FE4F94CE1BA98E76D7271317524254856
:10019000258EBD05A2D7126492AC2C47D85CDB0F2C
:1001A00086AEBCC7F549CE4DEAA0193A8ADD9AC1A0
:1001B000DFF9EB0E5D4020197F6BD2219D19DEBD6A
:1001C000361399857C05ACD677B9805CE5426B8B9C
:1001D000A66C95BE93EF4C8722D5D4C9049FE4D872
:1001E000CB93B7908A27025A82A52481311B5A2AC1
:1001F0003029322FB77E7EE00543E35317060B6AA2
:100200001CAD1AB0E7FA8FFA91F483B7608F8DD1E5
:1002100068B327115306C9D8A8906A329851BB62B7
:100220005B069070B628B077484F9178F45D746D96
:10023000B7AA0B5E1A8CE2F6E74B966D766B565AB0
:100240000F588F56B59C64A72ED9BB2FAAD704711F
:100250001179CE08D6FE1305E99BECFFE12F023C95
:10026000642B3E05CDE7D69C88CCA4DF7F53A12D1F
:10027000E4EFE4CEA9F4EA81FE6AB53C0A13016317
:10028000552C49C02B104C3BDC7F61F240E4EEFA68
:1002900014A7978BE7187151F0630F4BF406780A97
:1002A000BFFC04A043E8A05A5A0BE0A88B126E9C36
:1002B00097A15F62920AD3CE4907A7C341B66BE903
:1002C00094836BC02FC9FEF1E6788CAA6C99271035
:1002D000633735C707B4AC56DCE7FBFA3D7AC0009C
:1002E00073D27D0362E00000001A7274612C1AFB65
:1002F0003C00018B03BD090000DEE74B10B1C46771
:10030000FB020000000004595A0001010101010133
:1003100001010102020202020202020203030303BC
:10032000030303030404040404040405050505058C
:10033000060606060607070707070808080809094A
:1003400009090A0A0A0B0B0B0C0C0C0D0D0D0E0EF5
:100350000E0F0F0F10101111111212131314141588
:100360001516161717181819191A1A1B1B1C1D1DFC
:100370001E1E1F2020212222232424252626272852
:1003800029292A2B2C2D2D2E2F3031323233343582
:10039000363738393A3B3C3D3E3F40414243444585
:1003A000464748494A4C4D4E4F5051535455565864
:1003B000595A5B5D5E5F616264656668696B6C6D0E
:1003C0006F7072737577787A7B7D7E808283858784
:1003D000888A8C8E8F91939596989A9C9EA0A2A3C2
:1003E000A5A7A9ABADAFB1B3B5B7BABCBEC0C2C4C7
:1003F000C6C9CBCDCFD1D4D6D8DBDDDFE2E4E7E987
:10040000EBEEF0F3F5F8FAFDFFFFAA7F554022234B
:10041000252628292A2C2D2F3032333536383A3BE1
:100420003D3E4042434547494A4C4E505153555733
:10043000595A5C5E6062646668696B6D6F71737552
:1004400077797B7D7F81838587898A8C8E90929452
:1004500096989A9C9E9FA1A3A5A7A8AAACAEAFB15F
:10046000B3B4B6B8B9BBBCBEBFC1C2C3C5C6C7C9A9
:10047000CACBCCCDCED0D1D2D2D3D4D5D6D7D7D863
:10048000D9D9DADADBDBDBDCDCDCDCDCDDDDDDDDB5
:10049000DCDCDCDCDCDBDBDBDADAD9D9D8D7D7D6BD
:1004A000D5D4D3D2D2D1D0CECDCCCBCAC9C7C6C574
:1004B000C3C2C1BFBEBCBBB9B8B6B4B3B1AFAEACBA
:1004C000AAA8A7A5A3A19F9E9C9A98969492908E65
:1004D0008C8A89878583817F7D7B79777573716F3E
:1004E0006D6B6968666462605E5C5A59575553511A
:1004F000504E4C4A4947454342403E3D3B3A3836D0
:10050000353332302F2D2C2A2928262523222B0063
:1005100014001A00080015001700E000040016007F
:10052000070009000A00E1001D001B000600190079
:1005300005001C0018000C00120013002A000B001C
:100540000D000E000F0033003400110010003600C3
:10055000370038002832E20021522C002252E700F6
:10056000000001001E021F022002210222020100DF
:100570002D022E022F023002310201002900E30079
:10058000E200390034022302240225022602270257
:100590004C005000510052004F00350035024A0017
:1005A0004D004B004E0046002C3201000100280097
:1005B00023520100000001001E001F002000210046
:1005C000220001002D002E002F003000310001001C
:1005D0002900E700E600390034002300240025004C
:1005E000260027004C003A003B003C003D003E0046
:1005F0003F0040004100420043004400450001002C
:1006000023522A0001000100000027782578237872
:100610002178000020782878267824782278000035
:1006200000000000000000000000000000000000CA
:1006300000000000000000000000000000000000BA
:10064000000000000000007C00000000000000002E
:10065000000001000100000001000100000009028B
:100660005B00030100A0FA0904000001030101007E
:10067000092111010001224400070581030800013E
:1006800009040100020300000009211101000122F8
:100690002200070582032000010705030320000153
:1006A00009040200010300000009211101000122D8
:1006B000320007058403200001120100020000003F
:1006C000080778CBDC0100010203011C03760069F6
:1006D0000061006C003A00660036003400630032AE
:1006E00000620033006300000014037200650076AE
:1006F00000690075006E0067003400310000000CD6
:1007000003670074006900700073000000040309AF
:1007100004000000000000000000000000000000D5
:1007200000000000000000000000000000000000C9
:1007300000000000007E0F00D4FFFFFFC700000094
:100740007800000000000000002A2B2800000000B4
:100750000000000000000000000000002900000070
:10076000002C1E3420212224342627252E362D3716
:1007700038271E1F202122232425263333362E37E7
:10078000381F0405060708090A0B0C0D0E0F10117F
:1007900012131415161718191A1B1C1D2F3130238C
:1007A0002D350405060708090A0B0C0D0E0F101154
:1007B00012131415161718191A1B1C1D2F3130355A
:1007C0004C0011241FBECFEFDAE0DEBFCDBF25E025
:1007D000A6EAB1E001C01D92AB31B207E1F711E02A
:1007E000A0E0B1E0E4E0FBE602C005900D92A63A7D
:1007F000B107D9F70E94682B0C9417350C940000B0
:10080000482F20911A059091D10459E0291302C074
:1008100080E0089530E0529FF001539FF00D1124C5
:10082000EE52FB4F8181681306C08081481303C0DC
:1008300085818111EECF2F5F3F4F2770E7CFE8ED25
:10084000F0E080818E7F80831092E2001092DA00C7
:100850001092E100A0EEB0E08C9181608C938081D9
:100860008F77808319BCA7EDB0E08C918E7F8C933D
:1008700080818F7E80831092BA0408952091E400D5
:100880003091E50095E6A9012091EC00822F81705E
:1008900020FF06C08091E80080FF06C080E0089538
:1008A0002091E80022FD1AC08091C704882389F0B6
:1008B000853089F08091EB0085FD0FC02091E40028
:1008C0003091E50042175307F9F29150E1F684E0C8
:1008D000089582E0089583E0089581E0089580916D
:1008E000C90487FF13C08091E80082FF06C0809191
:1008F000E8008B778093E80004C08091C7048111E1
:10090000F2CF08958091C7048823D9F38091E8003D
:1009100080FFF8CF8091E8008E77ECCF982F9093EE
:10092000E900242F762F50E0891731F07091EC0008
:100930002091ED005091F00021FD07C09F5F97309E
:1009400071F78093E90081E008953091EB003E7FDC
:100950003093EB003091ED003D7F3093ED0030910E
:10096000EB0031603093EB007093EC002093ED00CE
:100970005093F0002091EE0027FDE0CF80E0089535
:10098000B0E0A0E0E6ECF4E00C945B33C8EDD0E01E
:1009900088818F7E8883E7EDF0E0808181608083AD
:1009A00084E082BF81E08093BA0488818E7F88834F
:1009B00002EE10E0F80110821092DA0081EEC82EEB
:1009C000D12CF601108288818F7788838881806896
:1009D000888388818F7D888319BC1092C704109208
:1009E000C8041092C6041092C50490EEE92EF12CB2
:1009F000F70180818B7F808388818160888342E0DA
:100A000060E080E00E948E04F60180818E7F80830A
:100A1000F801808181608083808188608083F70114
:100A200080818E7F8083888180618883CDB7DEB7A7
:100A3000E8E00C947733FC018091CF049091D004CE
:100A400086179707A0F06115710529F49091E800C9
:100A50009E779093E80090E06115710551F4911133
:100A600008C08091E80082FF34C080E00895BC0196
:100A7000F2CF8091C7048823C1F18530C1F1809104
:100A8000E80083FD30C08091E80082FDEACF8091CC
:100A9000E80080FFE1CF8091F3002091F200382F31
:100AA0006115710519F02830310558F091E02830B2
:100AB000310509F090E02091E8002E772093E800BE
:100AC000CBCF81918093F100615071092F5F3F4F2F
:100AD000E7CF8091C704882341F0853041F08091B1
:100AE000E80083FFBECF81E0089582E0089583E0AF
:100AF0000895089508958091BC04089587E797E7C5
:100B0000909301088093000888E19AE00FB6F8946A
:100B1000A895809360000FBE90936000FFCF9C016A
:100B20004FB7F8948091B6049091B704A091B8049F
:100B3000B091B9044FBF821B930B08952FB7F8945F
:100B40006091B6047091B7048091B8049091B90493
:100B50002FBF08952FB7F8948091B6049091B704F1
:100B6000A091B804B091B9042FBF0895A3E0B0E0FC
:100B7000ECEBF5E00C9461332091B3043091B404B4
:100B800028173907A1F09093B4048093B304E0913F
:100B9000B104F091B204309751F024E029839B8393
:100BA0008A830680F781E02DCE0101960995239670
:100BB000E2E00C947D33A3E0B0E0E1EEF5E00C94CC
:100BC00061332091AF043091B00428173907A1F0A8
:100BD0009093B0048093AF04E091B104F091B2041B
:100BE000309751F023E029839B838A830680F78125
:100BF000E02DCE01019609952396E2E00C947D3319
:100C0000E091B104F091B204309729F00190F081A5
:100C1000E02D0995089580E008954115510511F0E2
:100C2000FA0109950895CF93DF93EC0140919D045B
:100C300050919E0460919F047091A0042FB7F89486
:100C40008091B6049091B704A091B804B091B90412
:100C50002FBF841B950BA60BB70B843F9140A105BA
:100C6000B10518F580919D0490919E04A0919F0478
:100C7000B091A0048093990490939A04A0939B044C
:100C8000B0939C0484EF91E0A0E0B0E080939504E1
:100C900090939604A0939704B0939804D093A504DE
:100CA000C093A404DF91CF9108950E949E056093A4
:100CB000990470939A0480939B0490939C0482E31C
:100CC00090E0A0E0B0E0E2CFFC018481862351F403
:100CD00092819923B9F06923808583FF05C081E063
:100CE00061110FC080E00895892F8F7092959F70D9
:100CF000982B862F8F7062956F70682B81E096130A
:100D0000F1CF089581E0FDCFDC0160918D048091E9
:100D10008E04962F891301C00895292F30E0F90120
:100D2000EE0FFF1FEB57FB4F408151814A175B07C6
:100D3000A1F487E08A9FA0018B9F500D11244C5194
:100D40005C4F81E0FA0184839613E6CF2F5F3F4F1B
:100D50002370332720938D0408952F5F3F4F922FE8
:100D60009370D8CF1092E2031092E103E4EEF3E027
:100D70008581811102C014821682379684E0EC319D
:100D8000F807B1F70895E6E8F2E090E080E061E46A
:100D900079E248E659E228EE38E2778366835187A4
:100DA0004087338722879787868701967096883099
:100DB000910599F7089581152CE7920741F4209148
:100DC000930430919404232B11F490E080E0089573
:100DD000FA01811101C0FB010995089580916A0211
:100DE000982F9E7F29F48170826080936A02089513
:100DF0008635E8F381708465F8CFAF92BF92DF92B9
:100E0000EF92FF920F931F93CF93DF93082F162F2C
:100E1000E901E42FF0E0E75FFC4F611110C0E491BD
:100E20005E2F4E2F4983E8835A83DF91CF911F9124
:100E30000F91FF90EF90DF90BF90AF900895E62E56
:100E4000F12C4491D42EE42FF0E026E0829FC001E3
:100E500011242FEF30E0B9010E940D33802F90E074
:100E6000880F991F55E5569FD001579FB00D11244B
:100E70008A1B9B0B982F990F890F5901AE18BF0839
:100E8000AE9ED001AF9EB00DBE9EB00D11245B2F63
:100E9000189F80011124012F11275901A01AB10AAE
:100EA000AE9E8001AF9E100DBE9E100D1124590103
:100EB000A81AB108AE9CC001AF9C900DBE9C900DCD
:100EC0001124892F9927281B390B2E9FC0012F9F92
:100ED000900D3E9F900D1124E92F62307105A1F015
:100EE00050F46115710509F49DCF6130710581F0F1
:100EF000EB2F512F97CF6430710569F080F0663089
:100F0000710509F48FCFF4CFE42F4B2F592F8ACFDF
:100F1000E42F412F87CFEB2F542F492F83CF4B2F17
:100F20005D2DE12F7FCF80E00895F894E82FE295C2
:100F3000EF70F0E031A1282F2F7081E090E001C028
:100F4000880F2A95EAF7982F9095932391A392A161
:100F5000892B82A3789408959091EB0192FF10C0A1
:100F600041E0282F2471243009F040E031E0282F9F
:100F70002871283009F030E0431711F02CE0822767
:100F800093FF10C041E0282F2471243109F040E084
:100F900031E0282F2871283109F030E0431711F093
:100FA0002CE082273091EC0130FF10C051E0282F57
:100FB0002171213009F050E041E0282F28712830BC
:100FC00009F040E0541711F029E0822731FF10C0EA
:100FD00041E0282F2171213109F040E031E0282F34
:100FE0002871283109F030E0431711F029E08227F9
:100FF00094FD877E089582389105B9F1B0F481336C
:10100000910509F47DC048F48932910509F46DC059
:101010008A32910509F47BC008958533910509F45E
:101020005FC08933910509F10895833E9105D9F197
:1010300038F4803E910529F1823E910579F10895B9
:10104000863E9105D9F1873E910509F43EC0843E64
:10105000910541F52091EC0121FF24C08091EB0125
:1010600084FD19C087EE90E008952091EB01237074
:1010700009F05AC02091EC0123FF14C089E290E0EE
:1010800008952091EB0120FD38C03091EC0130FF34
:1010900009C024FF43C090E080E008952091EB0157
:1010A00022FDF7CF08952091EB0122FD3AC0309147
:1010B000EC0130FD39C024FFF5CFEDCF2091EB01DD
:1010C00023FFF0CF24FDE7CFCDCF2091EB0123FD0F
:1010D0002EC03091EC0131FFEECF84EE90E0089508
:1010E0002091EB0125FFDECFC9CF2091EB0125FD3B
:1010F00021C02091EC0123FFD5CF89E390E0D2CF2E
:101100002091EB0126FFCECF8AE290E00895209156
:10111000EB0126FFC7CF81E390E0089583EE90E0D6
:10112000089582EE90E0089580EE90E0089586EEB6
:1011300090E0089585E390E008951F93CF93DF93A7
:101140000E94FB07EC01C11580E5D807F0F5C11539
:1011500080E4D80708F09CC0C03ED10520F5CD3C06
:10116000D10508F082C0C83AD10578F4C53AD10556
:1011700008F073C0C130D10519F1209709F1C430CE
:10118000D105F0F4D0E0C0E01BC0C33CD105D0F7DE
:10119000C85AD0E0CC0FDD1FC85DDE4F0990D88162
:1011A000C02DD4640DC0C11580E2D80708F0D1C0AD
:1011B000C11581E0D80708F05AC0C83ED10510F724
:1011C000CE01DF91CF911F910895C03682E5D807F7
:1011D00018F5C03482E5D80708F06BC0C03282E54C
:1011E000D80708F05FC0C11582E5D80708F497C09A
:1011F0002C2F2695269580E2289F900111248C2F74
:101200008370C1E0D0E002C0CC0FDD1F8A95E2F709
:10121000C22BD32BDD68D4CFC03A82E5D80760F467
:10122000C03882E5D80708F459C0CF71D0E0DC2F70
:10123000CC27C46FD06AC4CFC03C82E5D80708F47D
:1012400062C0C03E82E5D80708F09CCFDC2FCC27D7
:10125000CC27DF71C06FD06AB3CFC55AD0E0CB5D69
:10126000DE4FC881D0E0D064ABCFD065A9CF8D2F41
:101270000E94AC07182FCE0199270E94FB07C12FAF
:10128000D0E0DC2FCC27CC27DF71C82BD92B98CF0F
:10129000CE0199270E94FB07CC27DF70C82BD92BE2
:1012A000D06A8ECFCF71D0E0DC2FCC27C16FD06A4F
:1012B00087CF2C2F26952695277080E2289F9001B6
:1012C00011248C2F8370C1E0D0E002C0CC0FDD1F51
:1012D0008A95E2F7C22BD32BDC6872CF2C2F269590
:1012E0002695277080E2289F900111248C2F83700F
:1012F000C1E0D0E002C0CC0FDD1F8A95E2F7C22B1F
:10130000D32BDA685DCF8C2F8F710E94AC07C82F6A
:10131000D0E0DC2FCC27CC27DF71D06251CF8C2FCF
:101320008F710E94AC0755E0D695C7955A95E1F7A5
:10133000CF70D0E0DC2FCC27282F30E084FF05C011
:1013400044E0220F331F4A95E1F7C22BD32BD0691B
:1013500037CF8D2F8F710E94AC07182FCE019927A0
:101360000E94FB07C12FD0E0DC2FCC27CC27DF71F8
:10137000C82BD92BD2CF8091DC01882331F0109279
:10138000DC011092DB011092DA0108959091DC01EA
:10139000292F282361F0809589238093DC018823FD
:1013A00039F00E94AA059093DB018093DA01089539
:1013B00090E080E0F8CF80959091AB0498239093D3
:1013C000AB04089580959091AC0498239093AC045D
:1013D00008951092D1011092D0011092CF0108957A
:1013E0009091CE01292F282321F080958923809385
:1013F000CE010895EAEAF1E09191891303C0DF017B
:1014000011971C9291E0E03BF907B1F70895AAEA21
:10141000B1E0EFEF90E02D91821751F0EF3F19F41A
:10142000211101C0E92F9F5F9630A9F7EF3F09F422
:1014300008950E2E000CFF0BE855FE4F8283089591
:1014400080911A059091D104981301C008958F5F7F
:101450008770FACF292F973078F5863068F590E0BD
:1014600036E0239F800D911D1124682F677023E0C3
:10147000969587952A95E1F7FC01EE0FFF1FE80F7F
:10148000F91FED54FE4F50E040E080E0219130E044
:10149000062E02C0369527950A94E2F7217033276D
:1014A000042E01C0220F0A94EAF7822B4F5F5F4F90
:1014B0004330510559F7089580E00895292F97305A
:1014C00098F5863088F590E036E0239F800D911DD9
:1014D0001124282F277041E001C0440F2A95EAF714
:1014E00023E0969587952A95E1F7FC01EE0FFF1F03
:1014F000E80FF91FED54FE4F30E020E070E051910D
:10150000DF011197CB01022E02C0969587950A94B0
:10151000E2F7817081958527842385278C932F5F3F
:101520003F4F2330310559F708958093EA0108951C
:101530009091EA0121E030E0F90101C0EE0F8A95B7
:10154000EAF7D90102C0AA0FBB1F6A95E2F7EA2B9E
:1015500001C0220F4A95EAF7892F8E23E81305C0B0
:10156000292B822F0E94950A089520952923F9CFCF
:1015700021E030E001C0220F8A95EAF720958091A2
:10158000EA0182230E94950A08959091D1018095E5
:1015900089238093D101282F277069F4891759F086
:1015A0009091EC0192FF07C08695869586950E94E2
:1015B000B80A0E94E909089521E030E001C0220F35
:1015C0008A95EAF78091EA01822B0E94950A089594
:1015D0009091EC0192FF10C098E0899F9001112436
:1015E000622B6093D1010E94DC0A0E94AA059093AD
:1015F000D0018093CF0108950E94DC0A0895809362
:10160000DD0108959C013A9521153F4150F5FC01FB
:10161000EE27F170BC0166277270AC01442754704C
:101620009C012227387094FF0EC080E1EF2B09F453
:1016300080E0672B09F08062452B09F08064232B42
:1016400089F08068089581E0EF2B09F480E0672B32
:1016500009F08260452B09F08460232B19F0886023
:10166000089580E008950F931F93CF93DF938B012C
:10167000EA019091C704943061F58093E9008FEFFF
:101680009091E800815095FD06C095ED9A95F1F78F
:1016900000008111F5CF8091E80085FF1AC00E94FB
:1016A0003E04811111C08091E80085FD06C0809143
:1016B000E8008E778093E800F2CFF80181918F01E6
:1016C0008093F100219779F78091E8008E778093DD
:1016D000E800DF91CF911F910F91089543E050E012
:1016E000BC0184E00E94330B0895CF93DF93EC019B
:1016F00048E050E0BC0181E00E94330B88E0FE012D
:10170000ADEBB4E001900D928A95E1F7DF91CF91B6
:10171000089580916A0280FD0AC0E2E1F2E0118240
:1017200010821282339652E0E333F507C1F7539AE1
:101730003BB1377F2BB128604FB7F89482E192E03C
:10174000FC015191CF0168E02BB9000000C057FFA8
:101750003BB9550F000000C000C000C03BB900C03D
:101760006A9591F7F2E083339F0751F74FBF8FE5FA
:1017700094E00197F1F700C000000895EF92FF9206
:101780000F931F93CF93DF938C01C2E1D2E0F12C32
:10179000E12CF801948160916C0280916B02F5E07C
:1017A000EF16F104ECF49923E9F09E0140916D02EB
:1017B0000E94FD062FEFE21AF20A23968BE0E8164C
:1017C000F10439F70E94890BF801848190E00196B9
:1017D000817099278483CDB7DEB7E6E00C94793326
:1017E000992319F39E0140E0E3CFB0E0A0E0EBEFD6
:1017F000FBE00C945733EC014C81042F10E098016E
:10180000D8010E9408359B01AC010E94D3344B01E2
:101810005C01E0E2F0E0E01BF10BA5E5B0E0AC011B
:101820009B010E94D3346B017C019F01DF010E9468
:1018300042339B01AC010E94DE349B01AC01280DB8
:10184000391D4A1D5B1DC701B6010E94E634F22E08
:10185000822F90E039E23F1598F143E0249F9001F8
:10186000112435952795122F109592E1C92E92E0FB
:10187000D92E00E085E5E82EEF188E2D01FD8F2D85
:101880009601412F60916C020E94FD060F5F53E0AC
:10189000C50ED11C0B3089F70E94890B9C8181E019
:1018A000992319F0903219F48FEF80931A018091E7
:1018B0001A01890F8C83CDB7DEB7ECE00C9473333B
:1018C00025E530E0A901481B590BCA019A01220FF6
:1018D000331F280F391F37FFC4CF2F5F3F4FC1CFB2
:1018E0000F931F93CF93DF93C2E1D2E0FE011182E9
:1018F00010821282339682E0E333F807C1F710E0DA
:1019000000E080911002082E000C990B08171907AF
:101910008CF180911901082E000C990B801791070A
:101920004CF19E0140916D0260916C0280916B02BE
:101930000E94FD060F5F1F4F23960B30110509F71C
:101940000E94890B8091180190911002980F90933A
:10195000100220911901280F20931901121614F476
:101960009A301CF0819580931801DF91CF911F91DF
:101970000F910895198218821A82DCCFB0E0A0E09E
:10198000E4ECFCE00C945A33FC018281DD24DA940F
:1019900080FD02C0DD24D39402E112E0D0E0C0E07B
:1019A0002BE0B22EF80111821082128294E0E92E0F
:1019B000F12CC12C80910F028C0D8C30C4F16B2D59
:1019C0000E94FF32892F082E000C990B8C179D075F
:1019D00091F480916D028E9DA0018F9D500D112478
:1019E0005595479555954795980160916C02809162
:1019F0006B020E94FD06CD0CF1E0EF1AF108D1F662
:101A000021960D5F1F4FCB30D10561F60E94890BE7
:101A100080910F0291E0D91210C081110CC08AE0B0
:101A200080930F02CDB7DEB7E9E00C94763387FFE1
:101A3000CACF855FC8CF8150F3CF90E00196BE0139
:101A40000E942133EDCFEF92FF921F93CF93DF934C
:101A5000EC0182E1E82E82E0F82E10E08C81970103
:101A600040916D0260916C02810F0E94FD06195E2B
:101A700083E0E80EF11C1D3F89F70E94890B9A81D3
:101A80008C8190FF08C08F5F8C83DF91CF911F9175
:101A9000FF90EF9008958150F7CF90916A0290FFE8
:101AA0000CC0E2E1F2E0818360834283339692E0EE
:101AB000E333F907C1F70E94890B0895A3E0B0E072
:101AC000E4E6FDE00C945F338C01809111028111FA
:101AD0000AC09E012F5F3F4F4FEF6FEF0E94FD0640
:101AE0008A8180931102F8016481613069F08091EC
:101AF000110240E0662361F040E0623011F4409151
:101B0000110280E060E004C06091110240E080E0DA
:101B10000E944D0DF801848190E0019663E070E031
:101B20000E94213384832396E4E00C947B33A3E06A
:101B3000B0E0EDE9FDE00C94613390916A0290FF12
:101B40000AC09E012F5F3F4F0E94FD064B816981B5
:101B50008A810E944D0D2396E2E00C947D33CF9351
:101B6000DF93EC01EAE6F2E0438162818C810E941E
:101B7000970D8C818F5F8C83DF91CF910895CF93E8
:101B8000DF93EC01EC81F0E0E25FFB4F4491EAE689
:101B9000F2E0628181810E94970D8C818F5F8C833E
:101BA000DF91CF910895CF93DF93C9E6D2E060E053
:101BB000CE010E9478342196C11584E0D807B9F788
:101BC000DF91CF9108951F93CF93DF93122F84302D
:101BD000E0F46730D0F44630C0F4C42FD0E0CC0F2E
:101BE000DD1F9CE0699FC00DD11D112494E5899FE4
:101BF000C00DD11D1124632FCE0189960E94783427
:101C0000612FCE018A960E947834DF91CF911F9187
:101C10000895CF93C82F6FEF811168E385E290E0BC
:101C20000E9478346FEFC1116AE886E290E00E946A
:101C300078346FEFC1116AE487E290E00E94783453
:101C4000CF910895AEE1B0E0E8E2FEE00C945633A7
:101C5000A0909304B090940481E090E09093940459
:101C6000809393048EE0C82E85E0D82E00E07601A4
:101C700010E015C0F40125913491472D612F802F7C
:101C80000E94E30D82E0880E911C7394E6E07E12C0
:101C9000F1CFFCE0EF0EF11C1F5F173019F0470188
:101CA000712CE8CF0F5F84E5C80ED11C0430F9F623
:101CB0001A8219821C821B821E821D8218861F8234
:101CC00088EC90E09A87898709E711E04AE050E0C4
:101CD000B801CE0101960E949C34065F1F4F093C5B
:101CE000E1E01E0799F77E01FBE0EF0EF11C8AE0B0
:101CF000F70111928A95E9F74AE050E0B801C7016F
:101D00000E949C34065F1F4F0931F2E01F07A1F7C4
:101D10007E0185E1E80EF11C8AE0F70111928A95B7
:101D2000E9F78FEF9FEF9A8F898F87E08E8F4AE0D8
:101D300050E0B801C7010E949C34065F1F4F09366E
:101D4000F2E01F07A1F7B0929404A09293046E965C
:101D5000EDE00C94723380E00E94090E60E088E2AE
:101D600090E00E9478340E94220E0E94D30D81E000
:101D70000E94090E08959B01883070F49AE0899FB3
:101D8000B001112467587E4F4AE050E0C9010E941B
:101D9000443490E080E008958FEF9FEF0895AAE02B
:101DA000B0E0E5EDFEE00C9461339C0137552F3F28
:101DB000310509F068F4BE016F5F7F4F0E94BB0ED2
:101DC000892B31F489859A852A96E2E00C947D333B
:101DD00088EC90E0F9CF0F931F93CF93DF9384307B
:101DE00030F5673020F5463010F5C42FD0E0CC0F29
:101DF000DD1F2CE0629FC00DD11D112434E5839FAF
:101E0000C00DD11D1124CE0189960E945434082F93
:101E100010E0102F0027CE018A960E9454349801BA
:101E2000282BC901DF91CF911F910F91089590E068
:101E300080E0F8CF462F2091050230910602232B37
:101E400099F4703F39F4603F79F480917202909177
:101E500073020895773040F4663030F4843020F413
:101E6000672F0E94EB0E089590E080E00895CF92D6
:101E7000DF92FF920F931F93CF93DF936C0100913A
:101E8000EA018091DD01082BC3E0D0E010E0FC2ED8
:101E9000C8010C2E02C0959587950A94E2F780FD43
:101EA0000CC02197A0F7F12C8F2DDF91CF911F91BE
:101EB0000F91FF90DF90CF900895B6018C2F0E9474
:101EC0001A0F0E949D08019761F3EECFCF93DF9325
:101ED000EC010E94370FBE010E941A0F0E949D085C
:101EE000DF91CF910895FC0184818823F9F08781E7
:101EF0009085009791F00E949D0892959F70963072
:101F0000B9F080F4925F9F70923080F4803F19F0B6
:101F100058F4883E58F481E00895808191810E94B0
:101F2000660FEBCF9A5FEFCF843FA9F380E008956F
:101F3000883E88F3813FD1F7EECFA6E0B0E0E3EA38
:101F4000FFE00C9460339C01FC0187819085009731
:101F5000E1F486E0DE01119601900D928A95E1F799
:101F6000F901258189819A81222399F0662389F0DC
:101F70000E94370F182F682F89819A810E945E0A6C
:101F800069817A81812F0E941A0F2696E3E00C94D2
:101F90007C330E942A0A182FF3CF85E290E00E943A
:101FA0005434883389F486E290E00E9454348A38AD
:101FB00059F487E290E00E94543491E08A3409F0A9
:101FC00090E0892F8170089580E0FCCFAAE0B0E016
:101FD000ECEEFFE00C94573309E613E087E5C82EDA
:101FE00083E0D82E99E1E92E92E0F92E27E0922E97
:101FF00036E5A32E33E0B32E88248394D6010D93C7
:102000001D936D014AE050E0B701CE0101960E9498
:102010004434F8013896DF01892D1D928A95E9F73D
:1020200089819A81D80111969C938E938F81129603
:102030008C9312978D8113968C93139788851496A1
:102040008C931497898515968C9315978B819C8119
:1020500017969C938E93169718961C9218978A85BC
:1020600087FF3CC01E961C921E921D9780FF03C0E6
:10207000D80118968C9281FF04C0F8019085926077
:10208000908782FF07C0D80118969C91189794609A
:1020900018969C9383FF04C0F80190859860908700
:1020A00084FF07C0D80118969C91189790611896E4
:1020B0009C9385FF04C0F801808580628087015F62
:1020C0001F4FFAE0EF0EF11C89E6E81682E0F806F1
:1020D00009F094CF2A96ECE00C947333F801B6869D
:1020E000A586C4CFAAE0B0E0E8E7F0E10C945B334A
:1020F000E6E0F3E080E5DF011D928A95E9F7E4EE82
:10210000F3E088E3DF011D928A95E9F786E0C82EA7
:1021100083E0D82E7F0109EC11E0F701D182C08263
:102120004AE050E0B801CE0101960E94443488E0B4
:10213000FE013196D60101900D928A95E1F78985CD
:102140009A85D70113969C938E931297BAE0CB0E83
:10215000D11CE7E0EE0EF11C065F1F4F0931F2E0E3
:102160001F07D9F62A96E8E00C947733B0E0A0E098
:10217000ECEBF0E10C945333FC016280448081E08D
:102180008483EEE0F4E07490EDE8F4E0E4910091F3
:102190006D020695015810E0000F111F012F112745
:1021A000C3E3D2E022E1C22E22E0D22E3AE6832E11
:1021B00032E0932EAA24AA94B12C55245A94E719FC
:1021C000EE2EF12C82E0861530F080916B02888330
:1021D00080916C028983411016C01B821A8296017D
:1021E0004A81698188810E94FD06259683E0C80E98
:1021F000D11C8C169D0631F70E94890BCDB7DEB736
:10220000E0E10C946F338B818823E9F081508B835C
:10221000859DC00111246C8170E00E940D33FB018B
:10222000FF27E25FFB4F8491E82FE719E59DC0018E
:102230001124B7010E940D3380916D02689FB00197
:1022400011247A83CCCF0E940A34B5010E94213335
:102250008017910724F682E0861588F40E940A34DC
:10226000B5010E94213388830E940A3420916C02B8
:102270002695622F70E00E942133280F29831A824D
:1022800080916D02893C20F088EC8C838B83A7CFF2
:102290008431D8F784E1F9CF60916A02669570E0E5
:1022A0004BE050E08DE091E00E942334892B19F43B
:1022B00081E080930E020E94AA0590930802809309
:1022C00007020895B0E0A0E0E8E6F1E10C9457338E
:1022D00049015A016B017C010E94EE068401A401B0
:1022E0006A2D7B2D88E090E00E948A3494014A2D6B
:1022F0005B2DB601C70100E20E94A333622F84E286
:1023000090E00E947834CDB7DEB7ECE00C947333E4
:10231000A3E0B0E0EEE8F1E10C945433F82E762E11
:10232000E42E622E90916A0290FF2EC0E92FE6956E
:10233000AE2FB0E0A559BE4F8C9180930D029E7FC9
:10234000923031F59E012F5F3F4F8F2D0E94FD0689
:102350004B8169818A810E944D0DF0926B027092CF
:102360006C02E0926D02662079F020916A02609121
:102370006E0270916F023F2D472D5E2D809170028D
:10238000909171020E9462112396EFE00C947033D9
:10239000823019F4E0906D02E0CF863019F4F090AD
:1023A0006B02DBCF8930D9F38931B9F6E9518E2F31
:1023B0008170582EE695F0E0E75FFB4FE4910E2F19
:1023C00010E082E1C82E82E0D82EB12CA12C9BE037
:1023D000892E912CC501B4010E940D338F2D51100F
:1023E00013C0860F96014E2D672D0E94FD06A00E8C
:1023F000B11E83E0C80ED11C83E3C81682E0D80664
:1024000049F70E94890BA9CF861BECCFEAE6F2E0E0
:10241000438120E1421B08F440E021E06281818198
:102420000E9488110895EAE6F2E0438120E1420F1C
:1024300008F44FEF21E0628181810E9488110895A4
:10244000EAE6F2E0628120E1621B08F460E021E04C
:10245000438181810E9488110895EAE6F2E0628159
:1024600020E1620F08F46FEF21E0438181810E9437
:1024700088110895EAE6F2E0818121E043816281DA
:1024800080510E9488110895EAE6F2E0818121E0FE
:1024900043816281805F0E948811089580916E025D
:1024A000882319F0815080936E0220916A02309146
:1024B0006B0240916C0250916D0260916E027091BE
:1024C0006F0280917002909171020E9462110895D2
:1024D00080916E02833018F48F5F80936E0220919A
:1024E0006A0230916B0240916C0250916D026091D2
:1024F0006E0270916F0280917002909171020E9441
:102500006211089590916A0290FF34C09170811118
:1025100032C0926090936A02662391F020916A0221
:1025200030916B0240916C0250916D0260916E028D
:1025300070916F0280917002909171020E946211FD
:1025400060916A02669570E04BE050E08DE091E0AA
:102550000E942334892BB1F010920E0281E0809307
:102560000A0220E040916D0260916C0280916B0242
:102570000E94881108958B3210F09465CBCF880F9C
:10258000982BC8CF0E944C11E9CF80916A028695A2
:10259000815009F48AE261E00E94821208958091DC
:1025A0006A0286958F5F8B3208F081E061E00E94BD
:1025B0008212089590916A0290FF08C0969598172C
:1025C00028F0961718F40E94CF12089561E00E9437
:1025D00082120895EAE6F2E083E0808311828FEFB1
:1025E000828383831482758123E030E04FEF5FEFB5
:1025F00060E0868197810E94621108959091EC01BC
:1026000092FB222720F9281779F080FB92F990930A
:10261000EC016091EB017091EC0184E090E00E948C
:10262000963482E00E94C50A089590E080E00E94FE
:102630006234863E9E4F19F40E94CD0F089580E0CB
:1026400008958091AC049091AB04892B8093A801EC
:102650008091DC01882319F10E94AA052091DA01FA
:102660003091DB01821B930B8838934110F00E945C
:10267000BB098091A8019091DC01892B8093A8016E
:1026800020E08AEA91E0FC013191CF0131112F5F06
:10269000F1E0803B9F07B9F721110E94BB098091AF
:1026A000A10480959091A80189239091A204892B7F
:1026B0008093A80148E050E062ED71E088EA91E083
:1026C0000E943034892BA9F088E0E8EAF1E0A2ED1D
:1026D000B1E001900D928A95E1F7E091B104F0919B
:1026E000B204309731F00280F381E02D88EA91E066
:1026F00009950895CF93DF93EC014A855B856E853C
:102700007F850E940D068B810E94DB098C810E94CF
:10271000E2090E94211386E0FE0111928A95E9F7F1
:10272000DF91CF910895CF93DF93EC018D8181FDEF
:1027300017C082608D838091AB049B81892B80932D
:10274000AB048091AC049C81892B8093AC040E94E3
:102750002113488559856E857F85CE010E940D061F
:102760001092AE041092AD048D8180FD03C0CE01A5
:102770000E947A13DF91CF9108951092AC04EAEA97
:10278000F1E086E0DF011D928A95E9F790E080E0B4
:102790000E94DB0590E080E00E94B6051092AB0439
:1027A0000E9421130895AAE2B0E0E9EDF3E10C9450
:1027B000603389EC94E02091F100DC012D93CD0190
:1027C000B4E0813D9B07B9F78091CA04833009F4D6
:1027D00072C0B8F4813009F449C0823009F4B3C042
:1027E0008091E80083FF96C28091C9049091CA0449
:1027F0009A3008F08FC2E92FF0E0E75EFA4C0C94B3
:1028000035338A3009F48EC08B3009F471C08930B9
:1028100039F78091C904813219F78091CD049091E4
:10282000CE04009711F00297D9F68091E800877FD7
:102830008093E8008091E80082FF38C09091F30017
:102840008091F200029731F48091F100813011F013
:10285000863021F48091F1008093BC048091E800DF
:102860008B778093E8000E946F04BACF8091C904EF
:10287000813A09F0B5CF8091E800877F8093E80026
:102880008091CD049091CE04892B61F468E08DEBAA
:1028900094E070E00E941B058091E8008B778093A4
:1028A000E8009ECF60E090E080E0F3CF8091C70425
:1028B0008111C0CF95CF8091C904813A09F090CFA2
:1028C0008091CD049091CE04892B09F089CF80911D
:1028D000E800877F8093E8008091E80080FFFCCFCC
:1028E00080911C018093F1008091E8008E77B9CF30
:1028F0008091C904813209F073CF8091CD04909109
:10290000CE04892B09F06CCF8091E800877F8093FB
:10291000E8000E946F048091CB0480931C010E9408
:10292000BD135ECF8091C904813209F059CF8091E7
:10293000E800877F8093E8000E946F048091CC04B8
:102940008093BB044DCF8091C904813A09F048CFF0
:102950008091E800877F8093E8008091E80080FF05
:10296000FCCF8091BB04BECF803899F0823809F04B
:10297000D1C18091CD048F70873008F0CBC1809396
:10298000E9008091EB0085FB882780F91092E9002F
:1029900006C08091C5049091C60491118260909107
:1029A000E800977F9093E8008093F1001092F10087
:1029B0008091E8008E77AAC1882309F498C18230FB
:1029C00009F0A8C18091CB0481119BC18091CD04F5
:1029D0008F702FEF280F263008F09CC18093E900FC
:1029E0002091EB0020FF8DC1933031F48091EB00FA
:1029F00080628093EB0085C19091EB009061909391
:102A0000EB0021E030E001C0220F8A95EAF7209325
:102A1000EA001092EA008091EB008860EACF811111
:102A200079C11091CB041F778091E3008078812BCE
:102A30008093E3008091E800877F8093E8000E9404
:102A40006F048091E80080FFFCCF8091E3008068F4
:102A50008093E30082E0111183E08093C7045AC1A0
:102A60008058823008F056C12091CB043091CC04BC
:102A70002C3DE3E03E07A1F583E08A838AE2898367
:102A80004FB7F894DE01139620E03EE051E2E32FC9
:102A9000F0E050935700E49120FF03C0E295EF70FF
:102AA0003F5FEF708E2F90E0EA30C0F0C7968D93B5
:102AB0009D932F5F243159F74FBF8091E800877FA6
:102AC0008093E8006AE270E0CE0101960E941B0547
:102AD0008091E8008B778093E8001CC1C096E7CF17
:102AE0008091CD049091CE04432F5527433051055A
:102AF00009F44AC078F54130510509F485C08BE5E9
:102B000090E0EEE5F6E04230510509F003C1209176
:102B1000E800277F2093E8002091CF043091D00473
:102B20008217930708F49C0140E02115310509F054
:102B300070C041116EC08091E80082FDC9CF8091C4
:102B4000C704882329F2853019F28091E80083FFB9
:102B5000F2CFBECF4132510509F447C04232510590
:102B600009F0D8C08330910508F0D4C0FC01EE0F05
:102B7000FF1FE756FE4F0190F081E02D8A569E4FD1
:102B8000DC018C9190E01DC0332721303105E9F044
:102B90002115310579F022303105F9F02330310566
:102BA00009F0B8C0EBECF6E0E4918E2F90E0EBEC8E
:102BB000F6E007C0EDE0F7E0E4918E2F90E0EDE065
:102BC000F7E0009709F4A6C0A2CFEFEFF6E0E4919A
:102BD0008E2F90E0EFEFF6E0F4CFE9EEF6E0E4912F
:102BE0008E2F90E0E9EEF6E0ECCF8330910508F00F
:102BF00091C0880F991FFC01E156FE4F0190F081B2
:102C0000E02D89E090E083CF82E190E0E9EBF6E00F
:102C10007ECF8091C704882309F45ACF853009F408
:102C200057CF8091E80083FD53CF8091E80082FD6B
:102C300082CF8091E80080FF78CF9091F30080915F
:102C4000F2002115310519F08830910550F041E06E
:102C5000089709F040E08091E8008E778093E800C3
:102C600064CF44914093F10031962150310901968F
:102C7000E8CF803809F04EC08091E800877F8093CC
:102C8000E8008091C8048093F10092CE811142C087
:102C90001091CB041230F0F58091E800877F80938B
:102CA000E8001093C8040E946F04112311F084E01F
:102CB00005C08091E30087FDFACF81E08093C704CF
:102CC00042E061EC81E00E948E0442E261EC84E02B
:102CD0000E948E0442E261EC82E00E948E0442E295
:102CE00060EC83E00E948E048091C70413C0809141
:102CF000CB04813079F481E0933009F080E0809357
:102D0000C6041092E9008091E800877F8093E80074
:102D10000E946F048091E80083FF0AC08091E80060
:102D2000877F8093E8008091EB0080628093EB00C6
:102D3000AA96E3E00C947C330E94BD132FEF84E34A
:102D40009CE0215080409040E1F700C0000088E105
:102D50009AE00FB6F894A895809360000FBE909308
:102D60006000FFCF882321F00E94DB090E9421131D
:102D70000895882339F09091AB04982B9093AB047D
:102D80000E9421130895882321F00E94E2090E94E5
:102D900021130895882339F09091AC04982B9093D7
:102DA000AC040E9421130895882309F44DC0823891
:102DB00079F40E94000681FF47C089E30E94070A58
:102DC0000E94211389E30E94FA090E9421130895A9
:102DD000833859F40E94000680FF36C083E50E94C4
:102DE000070A0E94211383E5EECF843859F40E942C
:102DF000000682FF29C087E40E94070A0E9421136F
:102E000087E4E1CF9CEF980F913AE8F290E2980FB7
:102E1000983050F4877091E001C0990F8A95EAF7D5
:102E2000892F0E94E209D1CF9BE5980F933028F4B7
:102E300090E080E00E94DB050895885A8B3120F4F1
:102E400090E080E00E94B6050895FF920F931F93D3
:102E5000CF93DF93F82E0091A6041091A7040115DB
:102E6000110509F449C01092A5041092A40410920F
:102E7000A1041092A204D8011696CD91DC919E0176
:102E80003A9521153F4108F4D07ED1E0C11101C02F
:102E9000D0E0D8011996ED91FC911A97309731F056
:102EA0001B966D917C9180E00995D823DD2339F044
:102EB0008CEF8C0F813A30F58C2F0E94FA09FF209D
:102EC00099F0E091A604F091A704808584FD0CC0E0
:102ED0008091A304882341F0808191819C0121503D
:102EE00031092F333E47A0F00E9421131092A7040E
:102EF0001092A6041092A304C801CDB7DEB7E5E096
:102F00000C947A330E9421138C2F0E94D416D7CFB1
:102F10000E941306E9CFA7E0B0E0E1E9F7E10C94E5
:102F200058338E010F5F1F4F87E0F80111928A9589
:102F3000E9F78EE5C82E81E0D82EF12CE12CAA24E9
:102F4000A394B12CF60181916F018F3F09F443C026
:102F5000F894E82FE295EF70F0E021A18F70A501C1
:102F600002C0440F551F8A95E2F7CA01922F982B91
:102F700091A392A18095892382A3789400C0E5E66D
:102F8000F1E0912C31E021912F3F09F465C0A22F8F
:102F9000A295AF70B0E090968C9190E02F7002C037
:102FA000959587952A95E2F780FD56C0832F982A3C
:102FB000330F51E0EB36F50731F7F6013197808199
:102FC0008F3F11F00E94950780EA8A95F1F7F8018A
:102FD000EE0DFF1D9082EFEFEE1AFE0AF7E0EF16FE
:102FE000F10409F0AFCF47E050E0B80183EE91E083
:102FF0000E943034892B91F187E0F801A3EEB1E013
:1030000001900D928A95E1F781E08093E2010E94A0
:10301000AA059093E1018093E0018091E0019091F5
:10302000E1010E948F050597E8F047E050E063EE6C
:1030300071E08EEF91E00E943034892BC1F087E07F
:10304000E3EEF1E0AEEFB1E001900D928A95E1F789
:1030500081E01092E20107C080E0A9CF8091E201F7
:103060008111DBCF80E02796EBE00C94743380E095
:10307000F0CFA8E0B0E0EFE3F8E10C94613366EE46
:103080007EEF90E080E00E94963460E082E090E085
:103090000E94783460E083E090E00E9478341092DF
:1030A000DD0160E074E184E090E00E94963460E02D
:1030B00086E090E00E9478346FEF87E090E00E9415
:1030C000783440E050E0BA0188E090E00E948A3411
:1030D00060E084E290E00E94783460E087E190E074
:1030E0000E94783460E08CE090E00E94783460E0E8
:1030F0008DE090E00E94783419821A821B821C8233
:103100001D821E821F82188648E050E068E170E050
:10311000CE0101960E94683440E050E0BA0180E29E
:1031200090E00E948A3480E00E94090E0E94AB0E5B
:1031300040E050E0BA018FE090E00E948A3440E025
:1031400050E0BA0183E190E00E948A342896E2E0E0
:103150000C947D338B3109F476C040F58B3071F0DF
:1031600078F4863009F458C020F4853059F180E0B5
:103170000895873009F459C08830C9F781E008956F
:10318000803109F46EC068F48E3089F79091920412
:10319000892F8B7F92FF84608093920482FD5DC0B3
:1031A000EDCF863159F3893149F3E1CF8A3289F184
:1031B000E0F4873241F120F48E31C8F28D515DC0C8
:1031C0008932A9F68091930490919404892BB1F2ED
:1031D0000E94BD132FEF84E39CE02150804090407B
:1031E000E1F700C000000E947E05833448F48A3372
:1031F00008F042C0853339F0883309F4BFCFB7CF28
:10320000833409F0B4CF81E00E94FF0A0E94BD130D
:10321000B5CF0E943918B2CF80919204807F8093FD
:10322000920481E080939104089590919204892FF3
:103230008E7F90FF81608093920480FD9FCF817F7D
:10324000809392049BCF90919204892F8D7F91FF60
:1032500082608093920481FF91CF8091920481607B
:10326000EFCF90919204892F877F93FF886080939E
:10327000920483FDF2CF82CF895391E001C0990F70
:103280008A95EAF7892FC0CFCF93C82F8823C9F03A
:103290008238C9F40E94000681FD13C089E30E94B0
:1032A000070A0E9421132FEF87EE93E02150804000
:1032B0009040E1F700C0000089E30E94FA090E94F3
:1032C0002113CF9108958338A1F40E94000680FD58
:1032D000F8CF83E50E94070A0E9421132FEF81EEA9
:1032E00094E0215080409040E1F700C0000083E569
:1032F000E4CF8438A1F40E94000682FDE2CF87E487
:103300000E94070A0E9421132FEF81EE94E02150C2
:1033100080409040E1F700C0000087E4CECF8CEF02
:103320008C0F813AA8F580919104882391F0813027
:10333000D1F010929104EAEAF1E08191C81709F402
:1033400053C021E0E03BF207C1F78C2F0E94070A2F
:10335000B6CF8091AC04823271F78C2F0E94AA18EC
:103360008111AFCFE8CF8091AC048232B1F3C43188
:1033700061F028F4CB3039F080E08170F1CFC932B0
:1033800021F0C833C9F781E0F8CF10929104F4CF4F
:1033900080E28C0F883068F4C77021E030E001C013
:1033A000220FCA95EAF78091AC04822B8093AC047B
:1033B00086CFEBE5EC0FE33040F4F0E0EB5DFE4F41
:1033C000808190E00E94DB057CCFC85ACB3108F0A9
:1033D00078CFEC2FF0E0EE0FFF1FE85DFE4F80810D
:1033E00091810E94B6056DCF8C2F0E94FA090E9430
:1033F0002113ABCF1F93CF93DF93182FD0E0C0E002
:10340000893311F4C0E5D0E0812F0E944419209740
:1034100039F4812F0E94D416DF91CF911F91089526
:103420008FE99FE00197F1F700C000002197EFCFEF
:10343000B0E0A0E0EEE1FAE10C945933EC018AE04F
:10344000A82E2881222309F48FC02130C9F5998143
:103450008A81913021F422960E94FA1905C0923097
:1034600029F422960E9444192196EBCF933021F43F
:1034700022960E94D416F8CF943011F02196F4CF02
:10348000229630E020E0AE014F5F5F4F8053990BF2
:103490008A30910550F02150310930F38FE99FE0D7
:1034A0000197F1F700C00000F6CFA29EB001A39EE5
:1034B000700D11249C01260F371F8981EA01E3CF8B
:1034C000E22FF0E0EF5BF84FB490822F869586955F
:1034D000869590E0FC01EF5CF84FE4902770F12CAA
:1034E000022E02C0F594E7940A94E2F731E0E32259
:1034F000FF24FC01EF5DF84FC490D12C022E02C0D6
:10350000D594C7940A94E2F731E0C322DD24FC018C
:10351000EF5EF84F049110E002C0159507952A95CB
:10352000E2F701701127E114F10419F081EE0E9415
:103530004419C114D10419F086EE0E9444198B2D50
:103540000E94FA19C114D10419F086EE0E94D41613
:10355000E114F10419F081EE0E94D4160115110551
:1035600009F482CF8CE278CFCDB7DEB7EAE00C94D5
:103570007533B0E0A0E0EFEBFAE10C945B336B0144
:10358000C42FD22FFC0185818823A9F04093AA047F
:103590000E94AA059093A9048093A804C77081E0B3
:1035A00001C0880FCA95EAF70E94CA16CDB7DEB7E8
:1035B000E8E00C9477331091AA04141337C080917B
:1035C000A8049091A9040E948F057C01C6010E9465
:1035D000CF0EE816F90650F5C0E2CD0F1D17C1F069
:1035E00080E2810F883048F4177081E0012E01C01D
:1035F000880F0A94EAF70E94C316C83048F481E0A5
:103600009D2F977001C0880F9A95EAF70E94CA16FD
:10361000802F0E94FA19C83048F6D77081E001C0A7
:10362000880FDA95EAF70E94C316C0CFC77081E011
:1036300001C0880FCA95EAF7F6CFCF93DF93EC016C
:103640000E94020B9E01205E31092830310510F0E6
:10365000209741F40E94CA168C2F0E944419DF91D2
:10366000CF9108950E94B916F7CFA6E0B0E0EBE342
:10367000FBE10C9461339093730280937202811585
:1036800020E2920730F40E941D1B2696E2E00C9483
:103690007D3380EF89838A830E94AA058160682F29
:1036A0009C838B8349815A817C8181E091E00E94D7
:1036B0009526EBCFA7E0B0E0E0E6FBE10C945133B8
:1036C0007C01DC0114968C91882309F457C161E0D8
:1036D000C7010E949D0F8C01F7018581882319F194
:1036E0008091AD049091AE040097E9F00817190796
:1036F000D1F09927E4E0880F991FEA95E1F7FC01E2
:10370000E557FD4F2081246020838A579D4FDC01BF
:103710000D931C930E9493131092AB0461E0C701B8
:103720000E949D0F8C01F7018581882309F4B1C0A7
:10373000C80197578038910508F0DEC0D02EFFE011
:10374000F01708F40BC18FEF93E00E9454348111FD
:1037500005C109E612E0D11036C019821A821B8217
:103760001C8299249A9468013FEFC31AD30AC801B6
:103770000E94543489831A82882309F4EFC081306F
:1037800009F081C0580142E0A40EB11CC6010E949C
:103790005434C82E8A83882309F4E0C0C5010E94EE
:1037A0005434D82E8FEF8C0D8330D8F4580153E069
:1037B000A50EB11CDB82DD2021F0CE0101960E9416
:1037C000181A8501D0CF011524E0120709F4C6C0EC
:1037D000C8010E945434811101C0DA940F5F1F4F59
:1037E000BACF8BEF8C0D833030F5C8010396DB82A6
:1037F0005C01DD2031F35801A4E0AA0EB11C0E9447
:1038000054348C838823E9F28B819C818130BFEF13
:103810009B0710F0982F8827E6E0CE1631F0F7E0EE
:10382000CF1631F00E943629CCCF0E94351BC9CF6C
:103830000E94B028C6CF24E0C212C3CF580134E0A2
:10384000A30EB11CC80103960E945434DD2009F474
:1038500085C0882309F482C08150990B989E9001FD
:10386000999E300D11244D2D4150550BCA01820FE8
:10387000931F019708F4A5CFAFE9BFE01197F1F7C7
:1038800000C00000F6CFCE0101960E94181A560122
:1038900098CF6801E7E5DE1AFFEFCF16D10409F0F3
:1038A00058F56CE772E08C2D0E94BB0E892B21F538
:1038B000C60164E0880F991F6A95E1F7FC01EA5799
:1038C000FD4F22812130A1F520917C0230917D02B3
:1038D000232B91F020917E0230917F02232B61F007
:1038E00020918002309181024091820250918302A6
:1038F000242B352B232B21F1D70115965C905520D5
:1039000009F440C00E35BCE71B0729F10F35ECE781
:103910001E0741F00D35FCE71F07A1F5809104015A
:103920008823C9F01092040180E00E94251716C078
:10393000223011F72091800230918102232BE1F295
:10394000FC01E557FD4F20812E7F20838A579D4F34
:103950000E949313D1CF81E0809304018091D10123
:10396000877061F0D70115968C91882339F080918A
:10397000EC0182FF03C082E00E94C50A2796E2E1C3
:103980000C946D3380910401882309F41CC548010F
:1039900020EE821A91084090DC018091CE01482AE5
:1039A0008091AC04482A38E08316910408F086C060
:1039B00098012770332781E090E001C0880F2A9595
:1039C000EAF7552009F477C0482AD7018D919C91D8
:1039D0000E942A0A21E030E0390102C0660C771CFF
:1039E0008A95E2F7E091A604F091A704FF83EE83A5
:1039F0002090B0013090B1011D822D81E22FF0E0C6
:103A0000EE0FFF1FE95AFC4FC080D180C114D104D2
:103A100009F434C5411005C0D60112968C9181116C
:103A200087C0F601838190E086219721892B09F4D4
:103A30007FC08085982F977009F487E0F8E08F1693
:103A4000910408F055C0552009F44EC08695817048
:103A5000882309F46DC0D601AD90BC900A151B05F2
:103A600019F4552009F464C0EE81FF81CE16DF06FB
:103A700009F45EC0D6011D96ED91FC91309721F0BE
:103A80008081882309F454C0642DC6010E94640615
:103A9000882309F44DC00A151B0509F049C5011515
:103AA000110509F44AC551104AC5A214B30409F01E
:103AB0003FC0512C44C58095482287CF552009F43A
:103AC000C6C41093B1010093B0010E949E0560939B
:103AD0009D0470939E0480939F049093A004109281
:103AE000A5041092A40471CF82FB882780F9B0CF7F
:103AF0005520F1F08170ACCF0E94D4163EC50497DA
:103B0000813A910548F48A2D0E94070A552009F44C
:103B10005AC40E94211322CF0E9421138FE39CE9F3
:103B20000197F1F700C000008A2D0E944419EECFE2
:103B30009D819F5F9D8361CFFC01208131810217B0
:103B4000130709F039C4511039C41092A30480E05E
:103B50000E94251738C4902F812F74C4F901448521
:103B6000558566857785C9010E940D06D601159693
:103B70008C9181FF97C4C6010E947A138091AD0495
:103B80009091AE040817190709F08CC41092AE0486
:103B90001092AD0487C406E221EE41EE6AE17CE7B3
:103BA000C7010E94B91ADACE07E225EE45EE6BE1B5
:103BB0007CE7F6CF06E221EE40EE68E17CE7F0CF4D
:103BC00007E225EE44EE69E17CE7EACF06E221EE6A
:103BD00042EE6CE17CE7E4CF07E225EE46EE6DE1D4
:103BE0007CE7DECF08E221E045EE6EE17CE7D8CF4E
:103BF0008091EB0181608093EB0195C08091EC0195
:103C000088608093EC018FC08091EB018260F3CFDC
:103C10008091EB018460EFCF8091EB018860EBCF66
:103C20008091EC018160EDCF8091EC018260E9CF61
:103C30008091EB018061DFCF8091EB018062DBCF6F
:103C40008091EB018064D7CF0E94BD138091EB017E
:103C50008068D1CF8091EB018C60CDCF8091EC0159
:103C60008360CFCF8091EB018E7FC5CF8091EC0137
:103C7000877FC7CF8091EB018D7FBDCF8091EB0116
:103C80008B7FB9CF8091EB01877FB5CF8091EC011D
:103C90008E7FB7CF8091EC018D7FB3CF8091EB0108
:103CA0008F7EA9CF8091EB018F7DA5CF8091EB0115
:103CB0008F7BA1CF0E94BD138091EB018F779BCFAB
:103CC0008091EB01837F97CF8091EC018C7F99CF1E
:103CD0008091EB0182FB992790F921E0922790FBDC
:103CE00082F990FB83F987CF8091EC01982F909512
:103CF00091708E7F892B90FB81F983CF9091EB019E
:103D0000892F8F7B96FF806476CF0E94BD139091A0
:103D1000EB01892F97FB87F980586DCF61E08EE02A
:103D200090E00E9478346091EB017091EC0184E0A6
:103D300090E00E9496340E94BD1310CE60E0EFCF59
:103D40009091EB01892F8F7E94FF806154CF9091E9
:103D5000EB01892F8E7F90FF81604DCF9091EC0118
:103D6000892F877F93FF88604CCF85E3D1C385E39C
:103D7000DCC380916A0280FF19C0282F2E7F209318
:103D80006A0230916B0240916C0250916D02609119
:103D90006E0270916F0280917002909171020E9488
:103DA000621110920E020E94890BD8CD816080931F
:103DB0006A0261E086950E948212D0CD45EC52E104
:103DC0006FEC72E10E94E806C9CD4FEC52E165EC60
:103DD00072E1F8CF4AE352E164E472E1F3CF44E4E4
:103DE00052E16AE372E1EECF40E252E16DE272E14C
:103DF000E9CF4DE252E160E272E1E4CF46E052E108
:103E000063E172E1DFCF43E152E166E072E1DACFD4
:103E10004EE452E168E672E1D5CF48E652E16EE445
:103E200072E1D0CF61E081E0C6CF65E082E00E9420
:103E3000DA1294CD68E086E0FACF6EE089E0F7CF41
:103E400064E18FE0F4CF67E185E1F1CF61E088E1E3
:103E5000B2CF62E289E1EBCF61E083E2ACCF6AE20C
:103E600085E2E5CF0737FCE71F0709F44EC00837A6
:103E70002CE7120709F44DC0F70187819085009760
:103E800009F486C00E949D088C01F701C580B680A8
:103E9000B2943FE0B3228091D1018770F1F0AC2C55
:103EA000CC20E1F0812F807F803451F080E2800FC0
:103EB000883098F0B11004C0812F807E803269F084
:103EC0008091EC0182FF09C082E00E94C50A8091C6
:103ED000D1018770AA24A3948111A12C912E9294D0
:103EE0002FE09222FBE0F91508F4C6C0E92DF0E0BE
:103EF000ED5DFA4C0C94353381E00E94DC0A43E01E
:103F000062E081E00E94980A29CD81E00E94B80A0F
:103F1000F6CF82E0FBCF03303CE7130731F150F4DA
:103F200001155CE71507A1F001301C4709F0A4CF8B
:103F30000E949C160B359CE7190741F10C35ACE744
:103F40001A07D1F00A351C4709F096CF81E01BC053
:103F50000E94BD13EFEFF4E32CE0E150F04020406D
:103F6000E1F700C000000E947E056FEF7FEF90E058
:103F700080E00E949634DCCF8091EC0182FB8827A0
:103F800080F991E089270E94FE1276CF80E0FBCF76
:103F9000858100811181882369F0C8010E94370F53
:103FA000D82E682FC8010E945E0AB8018D2D0E948C
:103FB0001A0F68CFC8010E942A0AD82EF6CF212FE7
:103FC0002F70D22E107F19F0D29490EFD922CC20EE
:103FD000B9F0DD2069F080E2800F883010F0011127
:103FE00009C08091AC04D82AD092AC040E9421135D
:103FF000802F40C08091AB04D82AD092AB04F6CF7A
:10400000802F0E94D416DD20B9F180E2800F883025
:1040100010F0011104C08D2D0E94E20903C08D2D06
:104020000E94DB090E94211327C0312F3F70D32E3D
:10403000107F103219F0D29480EFD822002351F073
:10404000013009F487C0CC2009F493C0BB2009F4E7
:1040500041C0CECF8091EC0182FD38C0CC2081F1EF
:10406000DD2039F08091AC04D82AD092AC040E94B3
:10407000211380E00E944419E92DE850FF0B34978A
:1040800010F40E940006AA20B1F08091D10180FDB9
:1040900012C0D70115961C928695869586950E942A
:1040A000DC0AC7010E945A1B8091D1018695869532
:1040B00086950E94B80A60E0C7010E949D0F5ECC01
:1040C00080E00E94D416DD20B9F2A5CFCC2069F1A2
:1040D000B11004C08D2D0E94CA16CECF41E0B4129B
:1040E00010C01091DC018D2D8123D81629F20E9479
:1040F000AA059093DB018093DA01D12AD092DC01EA
:10410000BBCF55E0B512B8CF8D2D0E94CA168D2DAC
:104110000E94C6098091CE019D2D9823D91609F4DD
:10412000ABCFD82AD092CE01A7CFB1100AC08D2D27
:104130000E94C3168D2D0E94C6098D2D0E94F00984
:104140009BCF81E0B81298CF8091AC048D2109F407
:1041500093CFEDCFCC2029F095E09B1508F48CCFC0
:10416000B9CFA4E0AB1508F487CF8D2D0E94C316FC
:1041700083CFBB20D1F3093349F4BFEFE7EEF3E07F
:10418000B150E040F040E1F700C00000802F0E94F5
:10419000D41672CF812F86958695837061F0813019
:1041A00009F06ACFC8019370C11002C080E090E0AE
:1041B0000E94B60561CFC8019370C11002C080E0B3
:1041C00090E00E94DB0558CF812F837089F5C110E4
:1041D00053CF402F429546954770440F440F802F90
:1041E0008F70042E01C0880F0A94EAF7202F2071E7
:1041F00004FF07C02FE030E001C0220F4A95EAF724
:104200002095169516951370123069F050F4309180
:10421000DD01113029F0822B83230E94FF0A2CCF6D
:10422000832B822BFACF282B8091DD018227F5CFBB
:104230008695CC2011F0812F8170882309F41CCF42
:10424000402F429546954770440F440F802F8F7042
:10425000042E01C0880F0A94EAF7202F207104FF72
:1042600007C02FE030E001C0220F4A95EAF7209501
:10427000169516951370123069F050F43091EA01DA
:10428000113029F0822B83230E94950AF5CE832BCF
:10429000822BFACF282B8091EA018227F5CF1F705D
:1042A000CC2029F0812F0E94DC0A802F14CF802F90
:1042B0000E94C316812F0E94B80ADECE023F89F108
:1042C00060F4003FB9F0013F81F0CC2009F464C0F4
:1042D000B1108ECE812F8F7128C0033F49F1043F6A
:1042E000A1F78091EC0182FD2FC0812F8F71CC202E
:1042F00011F31BC0CC2081F024E02B1508F4BCCEB8
:104300001F7181E090E0012E01C0880F0A94EAF746
:104310009091EA018927B8CF35E03B1508F4ACCE7F
:10432000EFCF812F8F71C110C6CF0E94DC0AA4CEBF
:1043300080E0CC2009F4A8CF1F7181E0012E01C0DC
:10434000880F0A94EAF7A0CFCC20C9F08091D10160
:104350008770843041F40E94E909812F8F710E9497
:10436000B80AA12C89CE44E04B15D8F31F71812FD8
:104370000E94DC0A63E0812F0E94E80AF2CF54E039
:104380005B1530F40E94E90964E0812F8F71F4CF4E
:1043900081E00E94C50AE5CFBB2059F0093309F03E
:1043A000F5CE8FEF97EEA3E081509040A040E1F76B
:1043B000EBCE812F8F717FCF552029F0DC0118962D
:1043C0008C9185FFC4CBC8019755F8018F3F9105AB
:1043D00011F008F084C0FF2744E0EE0FFF1F4A955C
:1043E000E1F79F012A573D4F6901D70115968C913E
:1043F000E557FD4F908180FB90F99083882309F465
:10440000ADCB0E94AA059093F8018093F701F601C5
:1044100082818F5F82838091AB049091AC04892B61
:1044200083838091DC01848346815781668577850B
:10443000C6010E940D06D60115968C9181FF8BCB8B
:1044400090E080E09093AD048093AE042BC0809107
:10445000B0019091B1010817190781F41092B101D0
:104460001092B00110929D0410929E0410929F042D
:104470001092A0041092A5041092A4048091A604A6
:104480009091A704009709F49ECFA8E08A169104A2
:1044900008F052CB642D0E946406811103C081E0B4
:1044A0000E942517F70185818823A9F11092AA049B
:1044B000C80190578397E0F484E090E00E94623452
:1044C0009093EC018093EB01F801E150F047E23268
:1044D000F10508F08DCBE15DFA4C0C943533E851D1
:1044E000FC47E730F105F0F6EF5AFA4C0C943533FF
:1044F0000631FCE71F0709F082C08091AC048A7A7C
:1045000091E009F490E09093B20181112ECC89E200
:104510000E94070AFECA06312CE7120709F061C0A3
:104520008091B201811123CC89E20E94FA09F1CA7B
:10453000A114B10409F0B9CA512CB12CA12C80E00E
:104540000E942517D092A704C092A60481E0809310
:10455000A304F60185818093A10451100EC0AB28FD
:1045600061F0F601808191819C0124503109213A4A
:10457000310508F0C1CA0E94FA09D6011696AD901D
:10458000BC90C5019A9581159F4110F4E0EEBE22C2
:1045900077247394C50101978F339E4708F0712CDF
:1045A000D6011996ED91FC911A97309731F01B9630
:1045B0006D917C9181E009957822772079F0F60160
:1045C000868197810E94020B8093A204C501F8E0C6
:1045D0008F16910408F093CA0E9413060E942113BB
:1045E00095CA8091AC048272F801E052F847E53137
:1045F000F10508F037CCE85AFA4C0C9435330737FC
:104600003CE7130709F478CC08374CE7140709F0A6
:1046100082CC82E072CCB0E0A0E0E1E1F3E20C9465
:104620005C338091CB01807F09F051C08091CA0139
:10463000882309F44CC0E0911A0589E0D82E8091B6
:10464000D1048E1709F443C00E2F10E0ED9DF00148
:104650001124EE52FB4F84818823F1F1D09EE001BA
:10466000D19ED00D1124FE01EE52FB4F918180911D
:10467000C601981331C090818091C50198132CC058
:104680008581811129C0E280F3808091C7019091DA
:10469000C801E81AF90A60E085EC91E00E949D0FDC
:1046A0000E94CF0EE816F906B8F48091CB018F7006
:1046B00080618093CB01C852DB4F88818F7080610D
:1046C000888385EC91E00E945A1B0E94200ACDB796
:1046D000DEB7E7E00C947833F8013196E770AFCF9E
:1046E000A8E1B0E0E6E7F3E20C9454338C0186E0F5
:1046F000F801DE01539601900D928A95E1F7F801D9
:10470000F480E58085EC882E81E0982E8091C901A7
:1047100081112AC0F11003C0FF24F3941CC0EE20C5
:10472000F9F0C8010E94730FF82E8823C9F089E0C0
:10473000F801A5ECB1E001900D928A95E1F7809126
:10474000C901813031F48091C5019091C6010E9468
:10475000660F0E940B238F2D6896EFE00C94703348
:10476000C8010E945A1BD8CFC280D380B090CA0122
:104770008091C7019091C8013601681A790ABB205F
:1047800009F420C15080A18060E085EC91E00E9496
:104790009D0F0E94CF0E6816790608F0BDC0FF205D
:1047A00009F4BACF8091CB01382F307F2091C60118
:1047B000F8019181311161C0FE2C29131DC0209197
:1047C000C5019081291318C04091CC015091CD01B1
:1047D000278130854217530779F4E11047C08F7065
:1047E00080618093CB0185EC91E00E945A1B8091FF
:1047F000CB01F8018683AFCFE11038C06A2D852D3B
:104800000E9400046A2D852D0E940004E82E81116B
:10481000A2CF5B8AAC8A8B899C890E94660F292F64
:1048200022952F70243058F49F70223088F09923FD
:1048300099F0F8019681907F79F4FE2C8CCF2A5F55
:104840002F70223068F0C8010E945A1BEB2CF5CF64
:10485000992311F0882389F3805E883070F3F3CFB9
:10486000803F58F3815F833070F7E7CF8091CB01B1
:1048700081608093CB01F12C6ECF29131EC0209153
:10488000C5019081291319C04091CC015091CD01EF
:10489000278130854217530781F4E1100EC08683CB
:1048A000C8010E945A1B89E0F801A5ECB1E0019013
:1048B0000D928A95E1F7FB2C4ECFC8010E94730F31
:1048C000882309F44DCFEE2009F44ACF8091CB0123
:1048D0008032B8F02091C5013091C6013B872A870C
:1048E000DD86CC869091C9019E871F86888B80913A
:1048F000CC019091CD019A8B898BCE010A960E94B2
:104900005A1B89E0F801A5ECB1E001900D928A955F
:10491000E1F70E940B2300CF8091CB01982F907F6D
:1049200051F485EC91E00E945A1B89E0F401119248
:104930008A95E9F7A0CFFF2009F4EECE2091C601B9
:10494000F801918129131AC02091C5019081291382
:1049500015C04091CC015091CD012781308542177F
:10496000530761F4E1100AC08683C8010E945A1BF4
:1049700089E0F40111928A95E9F79DCFC8010E9460
:10498000730F882309F4ECCEEE2009F4E9CE809170
:10499000CB01803208F4B5CF2091C5013091C6011A
:1049A0003A832983DC82CB829091C9019D831E8248
:1049B0008F838091CC019091CD0199878887CE011A
:1049C00001969DCF60E085EC91E00E949D0F0E94D2
:1049D000CF0E6816790608F0A8CFFF2009F49CCE08
:1049E000FE2CEE2009F4BCCE9091C601F801818125
:1049F000981336C09091C5018081981331C02091E1
:104A0000CC013091CD01878190852817390741F578
:104A10008091C7019091C801C81AD90AF8ECCF1645
:104A2000D104A8F49091CB0190FD11C0907F79F052
:104A30008091CB01F8018683903F31F0982F907FD1
:104A4000905F8F70892B8683C8010E945A1B89E072
:104A5000F801A5ECB1E001900D928A95E1F77BCECB
:104A6000C8010E94730F81114CCF8091CB018160EE
:104A70008093CB01C8010E945A1B6DCEA2E1B0E029
:104A8000E4E4F5E20C945F330A871B872C873D87AB
:104A90004E875F87688B798B8A8BCE010A960E943E
:104AA000702381110CC089E0FE013A96DE01119657
:104AB00001900D928A95E1F78E8581110BC019E066
:104AC00080911A059091D104891331C06296E4E077
:104AD0000C947B332091D10430E0C901019687709A
:104AE000992740911A054817190699F099E0929F65
:104AF000D001939FB00D1124AE52BB4FFE013196F1
:104B000001900D929A95E1F78093D1040E94200ABA
:104B1000D6CF0E94BD131092D10410921A0589E0DD
:104B2000E5ECF1E0DF011D928A95E9F7C8CF819F9E
:104B3000C00111248E529B4F0E947023882331F2B2
:104B400080911A0590E001968770992780931A0545
:104B5000B7CFEF92FF920F931F93CF93DF93809184
:104B60001C04882361F0E091E3038DE0F82E80912E
:104B70001C04E81748F010921C041092E303CDB710
:104B8000DEB7E6E00C947933EE24E394EE0EE09287
:104B9000E303CE2FD0E0EF9DF0011124E35EFB4F45
:104BA00084818823E9F087819085892B21F4818590
:104BB0009285019659F400811181228133814481CB
:104BC00055816681778180850E943E25FC9EF0019B
:104BD000FD9EF00D1124E35EFB4F14821092AB0496
:104BE000EE2DC5CF1092900410928F0410921B01ED
:104BF00080918E0480938D040E94B2060E94A925A4
:104C00000895B0E0A0E0E7E0F6E20C945233C091E2
:104C10008D0497E0992E01E010E02DE0322E34E073
:104C2000432E5524539480918E048C1309C00E9406
:104C3000A9250E94B206CDB7DEB7E1E10C946E3330
:104C4000D0E0FE01EE0FFF1FEB57FB4F80819181FB
:104C5000989ED001999EB00D1124AC51BC4F149672
:104C60002C911497211159C060901C04EDE1F4E0DF
:104C700030E020E0812C5D01261508F04CC0E38473
:104C8000F484D501CD90DC906FEF7FEF712C472D30
:104C900050E0DA01AA0FBB1FAC0DBD1D0D90BC91F9
:104CA000A02D109731F0EA16FB0609F4BA017394AF
:104CB000EECF6F3F7607A9F1D80102C0AA0FBB1F44
:104CC0006A95E2F78A2AB801072C02C0660F771F9F
:104CD0000A94E2F7AB01415051098416150601F51B
:104CE000329EF001339EF00D1124E35EFB4F989E3F
:104CF000D001999EB00D1124AC51BC4F12962D914C
:104D00003C911397308727834482108211829287C7
:104D1000818715965C920E9484062196C37083CF8A
:104D200014822F5F3F4F3D96A7CFAEE1B0E0EBE995
:104D3000F6E20C9451334B8B5C8B6D8B7E8B8F8B9F
:104D4000988F91111092AB04188A198A1A8A86E0FA
:104D5000FE017396DE011A9601900D928A95E1F795
:104D60008091EC0182FF1CC00E94AA052091CF0116
:104D70003091D001821B930B8838934120F08091B1
:104D8000D10182FFE9C10E94AA052091DA01309188
:104D9000DB01821B930B8838934110F00E94BB0902
:104DA0008E85882389F061E0CE010A960E949D0FCE
:104DB0006C018F8540E5C4164CE7D40689F488233E
:104DC00029F181E080931B010A851B852C853D8597
:104DD0004E855F85688979898A890E943E25C7C08A
:104DE00061E5C6166CE7D60629F4882379F00E949F
:104DF000F225EACF72E5C7167CE7D70639F4882397
:104E000029F080911B018111F2CFDBCF84EEE82ED7
:104E100083E0F82E512CB12CA12C88248394912C62
:104E2000CE0101969A8F898F44244394F7014081E3
:104E3000518166246A94762C20E0822F90E0FC0158
:104E4000EE0FFF1FE40FF51F608171816115710581
:104E500031F0C616D70609F43C012F5FEECF10E003
:104E6000FFEF6F167F0609F443C0F70144811091EC
:104E70001B01812F411180E0182F1170F70135803F
:104E800086819F85992309F4F3C0112309F4F0C0AA
:104E9000311014C0A401062C01C0440F0A94EAF793
:104EA000842B86838091E1039091E203C29730F4D2
:104EB00062E370E07093E2036093E103C40102C017
:104EC000880F991F2A95E2F70197F7012681281785
:104ED000190671F480918F0490919004009709F461
:104EE0004AC00E948F05C39708F445C0F701448269
:104EF000512AFFEFAF1ABF0A27E0E20EF11C38E09B
:104F0000A316B10409F092CF8F85882309F410C14C
:104F1000552009F40DC10E94AA0590939004809336
:104F20008F0480911C04883010F591E0980F9093C5
:104F30001C0499E0FE013A96DE01119601900D9253
:104F40009A95E1F74DE0849FC0011124835E9B4F49
:104F500029E0FE013196DC0101900D922A95E1F7DE
:104F60002FEF3FEFFC0132872187D486C3866E96F0
:104F7000E2E10C946D3380918D0450918E04982F52
:104F8000F0E0E0E0851314C090938D04EE16FF0668
:104F900009F4AECF90E0FC01EE0FFF1FEB57FB4F83
:104FA000B182A08201968370992780938E04A0CF4E
:104FB000282E312CF101EE0FFF1FEB57FB4F208104
:104FC0003181F7E0F29FD001F39FB00D1124AC5175
:104FD000BC4F2D913C9111973E8F2D8F40E020E0EA
:104FE00030E0E32FF0E0EE0FFF1F6D8D7E8DE60FBA
:104FF000F71F6080718061147104E1F0F701019086
:10500000F081E02DFC8FEB8F20E005C0661677065F
:1050100009F4412F2F5FE22FF0E0EE0FFF1F6B8DA1
:105020007C8DE60FF71F608171816115710571F745
:105030003F5FD7CF4423C9F0F701231708F0FD01E4
:105040004482EE16FF0621F490938D04142F50CF66
:10505000981305C0AE17BF0711F49F5F93709101BD
:105060002F5F3F4F822F83708DCFF0E0E0E0F7CFCE
:1050700090E0311020C0B40102C0660F771F2A955E
:10508000E2F79B01215031092817390731F44423F5
:1050900009F44CC0C5010E948406C401062C01C05D
:1050A000880F0A94EAF7982F9095F7018681892353
:1050B0008683132D1DCFAC01062C02C05595479554
:1050C0000A94E2F7BA01617077279C0121503109F7
:1050D00082239323892B31F5672B21F1F7018281FC
:1050E0009381892BE1F0E98DFA8D27E011922A95C1
:1050F000E9F70E94AA05282F8B839C8334E03D8327
:10510000F70182819381782F8887998709811A8195
:105110003C8144E05E816F81892F0E943E25F7012A
:105120001582BBCFF42FF1703F2EB7CF312EB5CF04
:1051300090918D0480918E04981729F00E94012689
:10514000511015CF41CE0E94A925109290041092C3
:105150008F040E94B206F4CF82E00E94C50A13CEEB
:10516000A6E0B0E0E6EBF8E20C945F338C0190939C
:10517000730280937202011580E21807C0F4802F39
:105180000E94D416C8010E94020B9801205E3109CA
:105190002830310518F00115110531F40E94C316AD
:1051A0002696E4E00C947B330E94B216F9CF80EF90
:1051B00089838A830E94AA058160682F9C838B83E0
:1051C00049815A817C8181E090E00E949526E8CF58
:1051D0000F931F93CF93DF938C01EB016CE772E089
:1051E0008C2F0E94BB0E892B71F4DD27CC58DD4F2C
:1051F0008881F801128218828330F1F048F48130FE
:1052000059F0823081F0DF91CF911F910F91089575
:105210008430B9F08530B9F780917C0290917D029D
:10522000009789F306C080917E0290917F020097DB
:1052300099F30E94B028E7CF80918002909181027B
:10524000F6CF8091820290918302009791F720918E
:105250007C0230917D0280917E0290917F02211527
:105260003105F1F2009729F7C901E3CFCF93DF931E
:10527000EC010E94351BCE010E94B028DF91CF9136
:1052800008950F931F93CF93DF938C01862F6CE7C4
:1052900072E00E94BB0E892BB1F4C0917C02D091C8
:1052A0007D02209781F0F8018281833051F4CE0194
:1052B0000E943629CE010E943629CE010E9436294D
:1052C00002C08430D0F7DF91CF911F910F910895E4
:1052D0000F931F93CF93DF938C01EB016CE772E088
:1052E0008C2F0E94BB0E892B09F05CC0FE01FF27AA
:1052F000D80112968C911297EC58FD4F8130B9F479
:1053000015969C9192FF02C080830AC090FFFCCF4B
:1053100082E0808380917E0290917F020097B9F4B1
:1053200080917C0290917D020097E1F110C0823063
:10533000B9F515968C9182FD28C080FD0BC083E0E5
:1053400080838091800290918102009701F10E94F8
:10535000351B28C084E08083809182029091830273
:105360000097A9F780917C0290917D020097F9F057
:105370000E94362980917E0290917F02009739F732
:1053800080917C0290917D02E2CF85E080838091C4
:105390007C0290917D02009729F00E943629F0CF7F
:1053A00086E08083DF91CF911F910F9108958091C6
:1053B0007E0290917F02B8CFA6E0B0E0E2EEF9E283
:1053C0000C945F330E94AA058C018091DE019091BC
:1053D000DF018017910781F019821A820E94AA05C5
:1053E000682F49815A81792F80E090E00E949526AC
:1053F0001093DF010093DE012696E4E00C947B33EA
:105400001F920F920FB60F9211242F933F934F9339
:105410005F936F937F938F939F93AF93BF93CF933C
:10542000DF93EF93FF93D091E900DF708091EC0060
:10543000C82FC17080FDC0E81092E9008091F00093
:10544000877F8093F00078940E94D3131092E90034
:105450008091F00088608093F000CD2BCF70C093D6
:10546000E900FF91EF91DF91CF91BF91AF919F91B3
:105470008F917F916F915F914F913F912F910F90FD
:105480000FBE0F901F9018951F920F920FB60F929C
:1054900011242F933F934F935F936F937F938F9339
:1054A0009F93AF93BF93EF93FF938091E10082FFAF
:1054B00009C08091E20082FF05C08091E1008B7FEE
:1054C0008093E1008091DA0080FF24C08091D800B1
:1054D00080FF20C08091DA008E7F8093DA00809177
:1054E000D90080FF9DC080E189BD82E189BD09B4FA
:1054F00000FEFDCF81E08093C7048091BA04811142
:1055000009C00E941F040E94C0048091E2008460D0
:105510008093E2008091E10080FF17C08091E2005B
:1055200080FF13C08091E2008E7F8093E200809123
:10553000E20080618093E2008091D80080628093D5
:10554000D80019BC85E08093C7048091E10084FFF6
:105550002BC08091E20084FF27C080E189BD82E1F9
:1055600089BD89B5982F917080FFFBCF8091D800BD
:105570008F7D8093D8008091E1008F7E8093E10041
:105580008091E2008F7E8093E2008091E200816052
:105590008093E2008091C804882309F447C084E026
:1055A0008093C7048091C7048091E10083FF27C0E6
:1055B0008091E20083FF23C08091E100877F809388
:1055C000E10082E08093C7041092C8048091E1005A
:1055D0008E7F8093E1008091E2008E7F8093E200D5
:1055E0008091E20080618093E20042E060E080E030
:1055F0000E948E048091F00088608093F000FF91FB
:10560000EF91BF91AF919F918F917F916F915F913A
:105610004F913F912F910F900FBE0F901F901895B3
:1056200019BC1092C7041092BA0474CF8091E300A1
:1056300087FD93E09093C704B5CF78941F921FB66F
:105640001F9211248F939F93AF93BF938091B604C1
:105650009091B704A091B804B091B9040196A11D2E
:10566000B11D8093B6049093B704A093B804B0938F
:10567000B904BF91AF919F918F911F901FBE1F9052
:1056800018951F921FB61F9211248F939F93AF936B
:10569000BF938091B504811113C08091B60490919D
:1056A000B704A091B804B091B9044196A11DB11DF1
:1056B0008093B6049093B704A093B804B093B90450
:1056C000BF91AF919F918F911F901FBE1F90189512
:1056D000CDB7DEB7E1970FB6F894DEBF0FBECDBFF2
:1056E00085B7806885BF85B7806885BF84B7877FA9
:1056F00084BF0FB6F894A89580916000886180936C
:105700006000109260000FBE80E890E00FB6F89441
:1057100080936100909361000FBE83E997E09093BE
:10572000A7018093A6010E94C3060E9472100E94E6
:10573000E60F0E941F040E94C0048091E200846072
:105740008093E20078948091C7048823A1F010919F
:10575000E9001F709091EC00892F817090FD80E826
:10576000182B1092E9008091E80083FD0E94D3136A
:105770001F701093E90082E084BD93E095BD9AEF1D
:1057800097BD80936E000E94CD0F811102C00E94D0
:10579000AB0E0EE511E0D8018D918D018F3F11F018
:1057A0000E949507B1E005361B07A9F705E611E051
:1057B000F80181918F018F3F11F00E949507F1E070
:1057C0000B361F07A9F787E0EEEFF1E0DF01282F86
:1057D0001D922A95E9F7E3EEF1E0DF011D928A952B
:1057E000E9F70E941513811102C00E94391882E066
:1057F00090E00E9454348093920484E090E00E94F0
:1058000062349093EC018093EB010E948B17BFEF01
:10581000E6E7F1E0B150E040F040E1F700C0000001
:105820000E948B178091FE0180FF08C06FEF7FEF11
:1058300090E080E00E9496340E947E0583E090E034
:105840000E9454340E94FF0A8091ED01811173C0BF
:105850000E941513811104C00E9439180E94EA1297
:1058600088E090E00E945C344B015C0184E290E0AF
:105870000E945434282F30E040E050E060E070E0B7
:1058800080E090E000E20E948833282939294A29E3
:105890005B2920936A0230936B0240936C02509311
:1058A0006D0260936E0270936F028093700290930A
:1058B00071022E7F89F50E94EA1288E090E00E9432
:1058C0005C346B017C0184E290E00E945434282F08
:1058D00030E040E050E060E070E080E090E00E9466
:1058E0008833B22FA32FF42FE52F5B019701860198
:1058F000BC29A12BFE29E32BB0936A02A0936B0273
:10590000F0936C02E0936D0260936E02B0926F02AE
:1059100080937002909371020E94EE0610920E0224
:1059200080916A0280FF04C060E086950E94821226
:1059300081E08093ED0185E091E09093B204809343
:10594000B1048EEF91E027E0280F29ABCE0101963C
:105950007C018091C704853001F550E4D52ECC241C
:10596000C39400E112E18091C704853009F45FC05F
:105970000E94BD130E9400061092EF018091EE017B
:10598000882349F080916A02816080936A0260E016
:1059900086950E9482120E944C110E948B1730EF54
:1059A000C32E31E0D32E4EEFA42E41E0B42E27EFCC
:1059B00031E0D501F60191918D912E173F0709F441
:1059C00081C09817C1F310E066246394F50101913A
:1059D0005F01D6017D906D01701619F17026912C32
:1059E00088248394872D8821A1F09BA61CA70E9460
:1059F000AA059EA78DA76FA691E0802F882109F4A4
:105A000090E098AB4BA55CA56DA57EA58FA50E94E7
:105A100095269394880CB6E09B12E4CFF60131975B
:105A200000831F5F173091F60E949E054FC0809142
:105A3000C704843009F436C010920E028091EF0141
:105A400081110DC0C092EF0180916A02982F917070
:105A50009093EE018E7F80936A020E94890B1092D0
:105A6000B504A8E1B0E00FB6F894A895A093600043
:105A70000FBED092600083B7817F846083BF83B7FD
:105A8000816083BF7894889583B78E7F83BF0FB67C
:105A9000F894A895809160008861809360001092CE
:105AA00060000FBE8091C604882309F45CCF0E9479
:105AB0008B17EEEFF1E08191811177C5B9A9BE1383
:105AC000FACF51CF98137FCF0E94DC298091A40494
:105AD0009091A504892B09F43EC0409199045091FE
