:100000000C941F0F0C943C0F0C943C0F0C943C0F61
:100010000C943C0F0C943C0F0C943C0F0C943C0F34
:100020000C943C0F0C943C0F0C94441F0C94001F38
:100030000C94532A0C943C0F0C943C0F0C943C0FE2
:100040000C943C0F0C943C0F0C943C0F0C943C0F04
:100050000C943C0F0C941D200C943C0F0C943C0F02
:100060000C943C0F0C943C0F0C943C0F0C943C0FE4
:100070000C943C0F0C943C0F0C943C0F0C943C0FD4
:100080000C943C0F0C943C0F0C943C0F0C943C0FC4
:100090000C943C0F0C943C0F0C943C0F0C943C0FB4
:1000A0000C943C0F0C943C0F0C943C0F0501098000
:1000B000A101850319012AB700150126B700950192
:1000C00075108100C0050C0901A101850419012AE0
:1000D000A002150126A002950175108100C00660DE
:1000E000FF0961A1010962150026FF00952075082E
:1000F00081020963150026FF00952075089102C052
:1001000005010906A101050719E029E715002501E8
:10011000950875018102950175088101050719008F
:1001200029FF150026FF00950675088100050819AE
:1001300001290515002501950575019102950175A7
:10014000039101C00000000000000000000000005A
:10015000000000000000000000000000000000009F
:10016000000000000000000000000000000000008F
:10017000000000000000000000000000000000007F
:100180000000000000008080804040202010080413
:100190000204081010202040408080000000000071
:1001A000000000000000000000000000000000004F
:1001B000000000000000000000000000000000003F
:1001C000000000000000000000000000000000002F
:1001D000000000000000000000000000000000001F
:1001E000000000000000000000000000000000000F
:1001F000000000000000003FC101010202040404ED
:100200000402020101010000000000008000004023
:1002100080804000003030000000000102641804BB
:1002200012C2CA2488F08080404040402020202014
:100230001010101008080808040404040202020246
:1002400001010101000000000000000000000000AA
:10025000000000000000000000000000000000009E
:10026000000000000000000000000000000000008E
:10027000000000000000E01806010000000000007F
:100280000000000000808383404040402021212066
:1002900010101010080808080404040402020202E6
:1002A000010101010000000000000000000000004A
:1002B000000000000000000000000000000000003E
:1002C000000000000000000000000000000000002E
:1002D000000000000000000000000000000000001E
:1002E000000000008080808040404040202020208E
:1002F00010101010080F0808040404040204081069
:10030000102020404041422498C088888C9C1C1EAC
:100310000E060000000000000000000000000000C9
:1003200000000000000000000000000000000000CD
:1003300000000000000000000000000000000000BD
:1003400000000000000000000000000000000000AD
:10035000000000000000000000000000000000009D
:10036000000000000000000000000000000000008D
:10037000000000000000000000000000000000007D
:10038000000000000000000000000000000000006D
:10039000000000000000000000000000000000005D
:1003A000000000000000000000000000000000004D
:1003B000000000000000000000000000000000003D
:1003C000000000000000000000000000000000002D
:1003D000000000000000000000000000000000001D
:1003E000000000000000000000000000000000000D
:1003F00000000000000000000000000000000000FD
:100400000000808080404020201008040204081072
:10041000102020404080800000000000000000000C
:1004200000000000000000000000000000000000CC
:1004300000000000000000000000000000000000BC
:1004400000000000000000000000000000000000AC
:10045000000000000000000000000000000000009C
:10046000000000000000000000000000000000008C
:100470000000003FC10101020204844444428201A1
:10048000010100000000000080000040808040006A
:100490000030300000000001020404080810204071
:1004A000808080804040404020202020101010108C
:1004B0000808080804040404020202020101010100
:1004C000000000000000000000000000000000002C
:1004D000000000000000000000000000000000001C
:1004E000000000000000000000000000000000000C
:1004F0000000E018060100000C03000218190005B6
:10050000FE808383404040402021212010101010A5
:10051000080808080404040404083040808000002F
:10052000018698600000000000000000000000004C
:1005300000000000000000000000000000000000BB
:1005400000000000000000000000000000000000AB
:10055000000000000000000000000000000000009B
:1005600080808080404040402020202010101010CB
:10057000080F080804040404020202020101010138
:10058000000000000000000000000000000000006B
:10059000000000060F0F07030361F0F8FC60010183
:1005A000013C78F8F070000000000000000000003E
:1005B000000000000000000000000000000000003B
:1005C000000000000000000000000000000000002B
:1005D000000000000000000000000000000000001B
:1005E000000000000000000000000000000000000B
:1005F00000000000000000000000000000000000FB
:1006000000000000000000000000000000000000EA
:1006100000000000000000000000000000000000DA
:1006200000000000000000000000000000000000CA
:1006300000000000000000000000000000000000BA
:1006400000000000000000000000000000000000AA
:10065000000000000000000000000000000000009A
:10066000000000000000000000000000000000008A
:10067000000000000000000000000000000080807A
:100680008040402020100804020408101020204060
:10069000408080000000000000000000000000001A
:1006A000000000000000000000000000000000004A
:1006B000000000000000000000000000000000003A
:1006C000000000000000000000000000000000002A
:1006D000000000000000000000000000000000001A
:1006E0000000000000000000000000000000003FCB
:1006F000C10101020204844444428201010100005C
:100700000000000080000040808040000030300089
:10071000000000010264180412C2CA2488F080801C
:1007200040404040202020201010101008080808E9
:10073000040404040202020201010101000000009D
:1007400000000000000000000000000000000000A9
:100750000000000000000000000000000000000099
:100760000000000000000000000000000000E01891
:10077000060100000C03000218190005FE808383A7
:100780004040404020212120101010100808080887
:10079000040404040202020201010101000000003D
:1007A0000000000000000000000000000000000049
:1007B0000000000000000000000000000000000039
:1007C0000000000000000000000000000000000029
:1007D0000000000000000000000000008080808019
:1007E000404040402020202010101010080F080822
:1007F00004040404020202020101010100000000DD
:1008000000000000000000000000000000000000E8
:1008100000000000000000000000000000000000D8
:1008200000000000000000000000000000000000C8
:1008300000000000000000000000000000000000B8
:1008400000000000000000000000000000000000A8
:100850000000000000000000000000000000000098
:100860000000000000000000000000000000000088
:100870000000000000000000000000000000000078
:100880000000000000000000000000000000000068
:100890000000000000000000000000000000000058
:1008A0000000000000000000000000000000000048
:1008B0000000000000000000000000000000000038
:1008C0000000000000000000000000000000000028
:1008D0000000000000000000000000000000000018
:1008E0000000000000000000000000000000000008
:1008F00000000000000000808040404020202020B8
:1009000020180402010204081020204040808000CA
:1009100000000000000000000000000000000000D7
:1009200000000000000000000000000000000000C7
:1009300000000000000000000000000000000000B7
:1009400000000000000000000000000000000000A7
:100950000000000000000000000000000000000097
:1009600000000000000000000000003FC101010283
:100970000204040404020201000000000000000060
:100980008000004080804000003030000000000106
:1009900002040408081020408080808040404040CD
:1009A0002020202010101010080808080404040457
:1009B000020202020101010100000000000000002B
:1009C0000000000000000000000000000000000027
:1009D0000000000000000000000000000000000017
:1009E00000000000000000000000E0180601000008
:1009F0000000000000000000008083834040404071
:100A000020212120101010100808080804040404F4
:100A100004083040808000000186986000000000DB
:100A200000000000000000000000000000000000C6
:100A300000000000000000000000000000000000B6
:100A400000000000000000000000000000000000A6
:100A50000000000000000000808080804040404096
:100A60002020202010101010080F0808040404048F
:100A700002040810102020404041422418000000C9
:100A80000000000000000000000000000000000066
:100A90000000000000000101010000000000000053
:100AA0000000000000000000000000000000000046
:100AB0000000000000000000000000000000000036
:100AC0000000000000000000000000000000000026
:100AD0000000000000000000000000000000000016
:100AE0000000000000000000000000000000000006
:100AF00000000000000000000000000000000000F6
:100B000000000000000000000000000000000000E5
:100B100000000000000000000000000000000000D5
:100B200000000000000000000000000000000000C5
:100B300000000000000000000000000000000000B5
:100B400000000000000000000000000000000000A5
:100B50000000000000000000000000000000000095
:100B60000000000000000000000000000000000085
:100B70000000000000008080404040201008040277
:100B800001020408102040808000000000000000E6
:100B90000000000000000000000000000000000055
:100BA0000000000000000000000000000000000045
:100BB0000000000000000000000000000000000035
:100BC0000000000000000000000000000000000025
:100BD0000000000000000000000000000000000015
:100BE000000000000000003FC101010202040404F3
:100BF000040202010101000000000000000000806A
:100C00000000800000606000000102040408081079
:100C100010202040808080804040404020202020C4
:100C2000101010100808080804040404020202024C
:100C300001010101000000000000000000000000B0
:100C400000000000000000000000000000000000A4
:100C50000000000000000000000000000000000094
:100C6000000000000000C0300C0300000000000085
:100C70000000000000808686404040402122222063
:100C80001111101008080808040404040408304076
:100C900080800000018698600000000000000000D5
:100CA0000000000000000000000000000000000044
:100CB0000000000000000000000000000000000034
:100CC0000000000000000000000000000000000024
:100CD0000000000080808080404040402020202094
:100CE00010101010080F080804040404020408106F
:100CF0001020204040414224180000000000000065
:100D000000000000000000000000000000000000E3
:100D100000000101010000000000000000000000D0
:100D200000000000000000000000000000000000C3
:100D300000000000000000000000000000000000B3
:100D400000000000000000000000000000000000A3
:100D50000000000000000000000000000000000093
:100D60000000000000000000000000000000000083
:100D70000000000000000000000000000000000073
:100D80000000000000000000000000000000000063
:100D90000000000000000000000000000000000053
:100DA0000000000000000000000000000000000043
:100DB0000000000000000000000000000000000033
:100DC0000000000000000000000000000000000023
:100DD0000000000000000000000000000000000013
:100DE0000000000000000000000000000000000003
:100DF0000000808080804040201008040204081019
:100E00002040808000000000000000000000000082
:100E100000000000000000000000000000000000D2
:100E200000000000000000000000000000000000C2
:100E300000000000000000000000000000000000B2
:100E400000000000000000000000000000000000A2
:100E50000000000000000000000000000000000092
:100E60000000007E8202020404080808080404024C
:100E70000101000000000000000000800000800070
:100E800000606000010102040408081010202040E6
:100E90008080808040404040202020201010101092
:100EA0000808080804040404020202020101010106
:100EB0000000000000000000000000000000000032
:100EC0000000000000000000000000000000000022
:100ED0000000000000000000000000000000000012
:100EE0000000C0300C030000000000000000000003
:100EF000008086864040404021222220111110109F
:100F00000808080804040404040830408080000035
:100F10000186986000000000000000000000000052
:100F200000000000000000000000000000000000C1
:100F300000000000000000000000000000000000B1
:100F400000000000000000000000000000000000A1
:100F500080808080404040402020202010101010D1
:100F6000080F08080404040402040810102020409C
:100F70004041422418000000000000000000000072
:100F8000000000000000000000000000000001015F
:100F90000100000000000000000000000000000050
:100FA0000000000000000000000000000000000041
:100FB0000000000000000000000000000000000031
:100FC0000000000000000000000000000000000021
:100FD0000000000000000000000000000000000011
:100FE0000000000000000000000000000000000001
:100FF00000000000000000000000000000000000F1
:1010000000000000000000000000000000000000E0
:1010100000000000000000000000000000000000D0
:1010200000000000000000000000000000000000C0
:1010300000000000000000000000000000000000B0
:1010400000000000000000000000000000000000A0
:101050000000000000000000000000000000000090
:101060000000000000000000000000000000808080
:101070008080404020100804020408102040808036
:101080000000000000000000000000000000000060
:101090000000000000000000000000000000000050
:1010A0000000000000000000000000000000000040
:1010B0000000000000000000000000000000000030
:1010C0000000000000000000000000000000000020
:1010D00000000000000000000000000000001C34C0
:1010E000C4040404080808080804040201010000FC
:1010F0000000000080000040808040000030300090
:10110000010102020404040808102040808080804D
:1011100040404040202020201010101008080808EF
:1011200004040404020202020101010100000000A3
:1011300000000000000000000000000000000000AF
:10114000000000000000000000000000000000009F
:101150000000000000000000000000000000E01897
:1011600006010000000000000000000000808383F2
:10117000404040402021212010101010080808088D
:101180000404040404083040808000000186986054
:10119000000000000000000000000000000000004F
:1011A000000000000000000000000000000000003F
:1011B000000000000000000000000000000000002F
:1011C000000000000000000000000000808080801F
:1011D000404040402020202010101010080F080828
:1011E000040404040204081010202040404142245A
:1011F00018000000000000000000000000000000D7
:1012000000000000000000000000010101000000DB
:1012100000000000000000000000000000000000CE
:1012200000000000000000000000000000000000BE
:1012300000000000000000000000000000000000AE
:10124000000000000000000000000000000000009E
:10125000000000000000000000000000000000008E
:10126000000000000000000000000000000000007E
:10127000000000000000000000000000000000006E
:10128000000000000000000000000000000000005E
:10129000000000000000000000000000000000004E
:1012A000000000000000000000000000000000003E
:1012B000000000000000000000000000000000002E
:1012C000000000000000000000000000000000001E
:1012D000000000000000000000000000000000000E
:1012E00000000000000000808040404020202020BE
:1012F00020180402010204081020204040808000D1
:1013000000000000000000000000000000000000DD
:1013100000000000000000000000000000000000CD
:1013200000000000000000000000000000000000BD
:1013300000000000000000000000000000000000AD
:10134000000000000000000000000000000000009D
:10135000000000000000000000060D31C101010185
:10136000020202040402020100000000000000006A
:10137000800000408080400000303000000000010C
:1013800002040408081020408080808040404040D3
:10139000202020201010101008080808040404045D
:1013A0000202020201010101000000000000000031
:1013B000000000000000000000000000000000002D
:1013C000000000000000000000000000000000001D
:1013D00000000000000000000000E018060100000E
:1013E0000000000000000000008083834040404077
:1013F00020212120101010100808080804040404FB
:1014000004083040808000000186986000000000E1
:1014100000000000000000000000000000000000CC
:1014200000000000000000000000000000000000BC
:1014300000000000000000000000000000000000AC
:10144000000000000000000080808080404040409C
:101450002020202010101010080F08080404040495
:1014600002040810102020404041422418000000CF
:10147000000000000000000000000000000000006C
:101480000000000000000101010000000000000059
:10149000000000000000000000000000000000004C
:1014A000000000000000000000000000000000003C
:1014B000000000000000000000000000000000002C
:1014C000000000000000000000000000000000001C
:1014D000000000000000000000000000000000000C
:1014E00000000000000000000000000000000000FC
:1014F00000000000000000000000000000000000EC
:1015000000000000000000000000000000000000DB
:1015100000000000000000000000000000000000CB
:1015200000000000000000000000000000000000BB
:1015300000000000000000000000000000000000AB
:1015400000000000000000007E0F00D4FFFFFFC776
:101550000000007800000000000000002A2B280096
:101560000000000000000000000000000000002952
:10157000000000002C1E3420212224342627252E92
:10158000362D3738271E1F202122232425263333CA
:10159000362E37381F0405060708090A0B0C0D0EF6
:1015A0000F101112131415161718191A1B1C1D2FC2
:1015B0003130232D350405060708090A0B0C0D0EE2
:1015C0000F101112131415161718191A1B1C1D2FA2
:1015D0003130354C00DA028180D9F1DB20A4A62E0F
:1015E000AF00A0C0D30000A1C8D30000AED580A832
:1015F0001F408D142000643214783C1E20202020CF
:1016000020202000434150530057504D3A20000005
:1016100001010101010101010102020202020202B3
:101620000202030303030303030304040404040486
:10163000040505050505060606060607070707074C
:1016400008080808090909090A0A0A0B0B0B0C0CFF
:101650000C0D0D0D0E0E0E0F0F0F1010111111129B
:101660001213131414151516161717181819191A1A
:101670001A1B1B1C1D1D1E1E1F202021222223247D
:1016800024252626272829292A2B2C2D2D2E2F30BC
:10169000313232333435363738393A3B3C3D3E3FD0
:1016A000404142434445464748494A4C4D4E4F50BD
:1016B000515354555658595A5B5D5E5F616264657B
:1016C0006668696B6C6D6F7072737577787A7B7D05
:1016D0007E8082838587888A8C8E8F919395969859
:1016E0009A9C9EA0A2A3A5A7A9ABADAFB1B3B5B775
:1016F000BABCBEC0C2C4C6C9CBCDCFD1D4D6D8DB4C
:10170000DDDFE2E4E7E9EBEEF0F3F5F8FAFDFFFFE9
:10171000AA7F554000AF00AE2B0014001A0008004D
:1017200015001700E00004001600070009000A0079
:10173000E1001D001B000600190005001C00180038
:101740000C00120013002A000B000D000E000F0009
:101750003300340011001000360037003800283202
:10176000E20021522C002252E700000001001E027C
:101770001F0220022102220201002D022E022F024E
:101780003002310201002900E300E2003900340296
:10179000230224022502260227024C005000510099
:1017A00052004F00350035024A004D004B004E00FC
:1017B00046002C3201000100280001000100000059
:1017C00001001E001F0020002100220001002D004A
:1017D0002E002F003000310001002900E700E60054
:1017E00039003400230024002500260027004C0087
:1017F0003A003B003C003D003E003F0040004100FD
:101800004200430044004500010001002A0001009D
:1018100001000000277825782378217800002078BF
:101820002878267824782278000000000000000044
:1018300000000000000000000000000000000000A8
:101840000000000000000000000000000000000098
:10185000007C00000000000000000000010001000A
:10186000000001000100000009025B00030100A06C
:10187000FA0904000001030101000921110100011E
:101880002244000705810308000109040100020346
:101890000000000921110100012222000705820336
:1018A00020000107050303200001090402000103D1
:1018B0000000000921110100012232000705840304
:1018C00020000112010002000000080778CBDC01B3
:1018D00000010200011403720065007600690075C2
:1018E000006E0067003400310000000C03670074D4
:1018F0000069007000730000000403090407087FFA
:101900000807003E5B4F5B3E003E6B4F6B3E001C8A
:101910003E7C3E1C00183C7E3C18001C577D571C2A
:10192000001C5E7F5E1C0000183C180000FFE7C32F
:10193000E7FF00001824180000FFE7DBE7FF003096
:10194000483A060E00262979292600407F0505071A
:1019500000407F05253F005A3CE73C5A007F3E1C73
:101960001C0800081C1C3E7F0014227F2214005F0C
:101970005F005F5F0006097F017F00006689956A4E
:101980000060606060600094A2FFA2940008047E82
:1019900004080010207E20100008082A1C080008F7
:1019A0001C2A0808001E10101010000C1E0C1E0C23
:1019B0000030383E383000060E3E0E0600000000B3
:1019C00000000000005F0000000007000700001496
:1019D0007F147F1400242A7F2A12002313086462D4
:1019E00000364956205000000807030000001C2262
:1019F0004100000041221C00002A1C7F1C2A000814
:101A0000083E080800008070300000080808080838
:101A1000000000606000002010080402003E5149F0
:101A2000453E0000427F400000724949494600217E
:101A300041494D33001814127F10002745454539A0
:101A4000003C4A4949310041211109070036494902
:101A5000493600464949291E0000001400000000D4
:101A6000403400000000081422410014141414141F
:101A7000000041221408000201590906003E415DA0
:101A8000594E007C1211127C007F49494936003EB4
:101A900041414122007F4141413E007F4949494146
:101AA000007F09090901003E41415173007F080888
:101AB000087F0000417F4100002040413F01007F3E
:101AC00008142241007F40404040007F021C027FFA
:101AD000007F0408107F003E4141413E007F09091C
:101AE0000906003E4151215E007F09192946002662
:101AF000494949320003017F0103003F4040403F14
:101B0000001F2040201F003F4038403F0063140862
:101B10001463000304780403006159494D43000035
:101B20007F41414100020408102000004141417FF3
:101B3000000402010204004040404040000003074E
:101B40000800002054547840007F2844443800386E
:101B50004444442800384444287F003854545418DE
:101B60000000087E09020018A4A49C78007F0804E5
:101B700004780000447D4000002040403D00007F8C
:101B8000102844000000417F4000007C0478047865
:101B9000007C0804047800384444443800FC1824CD
:101BA00024180018242418FC007C080404080048A9
:101BB000545454240004043F4424003C4040207CFE
:101BC000001C2040201C003C4030403C00442810B9
:101BD0002844004C9090907C004464544C44000095
:101BE0000836410000000077000000004136080080
:101BF000000201020402003C2623263C00000000F3
:101C0000000000404040F0F8F8FF38FFF8F83FF8D7
:101C1000F8FF38FFF8F8F0404040000000000000F6
:101C200080C0C0C0800000C0C08000000080C0C074
:101C300000C0C0000080C0C00000000000C0C0C0E4
:101C4000C0C000C0C0000000000000000000000094
:101C50000000000000000000000000000000000084
:101C60000000000000000000000000000000000074
:101C7000000000000000000000000000C0F0F8FCC0
:101C80003E1E06010000007F4141417F007F41412F
:101C9000417F000080C0E07E5B4F5BFEC00000C063
:101CA00000DCD7DEDEDED7DC00C000000000000074
:101CB0000000000000000000000000000000000024
:101CC000000000494949FFFFFFFFE0DFBFBF00BF41
:101CD000BFDFE0FFFFFFFF49494900000000001F90
:101CE0003F6060E0BF1F007F7F071E381E077F7FB9
:101CF000007F7F0E1F3B716000000000007F7F0CA3
:101D00000C0C007E7E007F7E0303007F7E03037E3B
:101D10007E03037F7E000F3E703C063C703E0F004A
:101D2000327B49493F7E007F7E0303001E3F696985
:101D30006F2600000000000000000000030F1F3F9E
:101D40003C7870600000007F4141417F007F41414D
:101D5000417F00307B7F7830202030787F3B00034C
:101D6000000F7F0F0F0F7F0F000300000000000027
:101D70000000000000000000000000000000000063
:101D8000000000010101070F0F7F0F7F0F0F7E0F73
:101D90000F7F0F7F0F0F07010101000000000000FF
:101DA0000000000001010000000000000000000031
:101DB0000000000000000000000000000000000023
:101DC0000000000000000000000000000000000013
:101DD0000000000000000000000000000000000003
:101DE00000000000000000000000000000000000F3
:101DF00000000000000000000000000000000000E3
:101E000000000000000000000000000000000000D2
:101E100000000000000000000000000000000000C2
:101E200000000000000000000000000000000000B2
:101E3000000000000000000000000000000011246D
:101E40001FBECFEFDAE0DEBFCDBF11E0A0E0B1E012
:101E5000ECEBF9E602C005900D92A039B107D9F775
:101E600024E0A0E9B1E001C01D92A43FB207E1F770
:101E70000E947A2A0C9475340C940000CF93DF935F
:101E80004091F2045091F304425F52409A01245869
:101E90003D4F21303240C0F020E032E0241B350BB2
:101EA0006091F0027091F102FC01CA01240F351F0C
:101EB000C1E0D0E08217930750F07093F102609375
:101EC000F002DF91CF9108952CE732E0E9CF449101
:101ED000DC01AE50BD4F5C91451781F04C93AC01D5
:101EE000A5E056954795AA95E1F7DE0102C0AA0F35
:101EF000BB1F4A95E2F7AD016A2B752B019631960F
:101F0000D9CF482F2091E5029091AC0257E02913D8
:101F100002C080E0089530E0529FF001539FF00D21
:101F20001124E355FD4F8181681306C08081481359
:101F300003C085818111EECF2F5F3F4F2770E7CF20
:101F4000E8EDF0E080818E7F80831092E2001092B5
:101F5000DA001092E100A0EEB0E08C9181608C93E9
:101F600080818F77808319BCA7EDB0E08C918E7F44
:101F70008C9380818F7E80831092950208952091AA
:101F8000E4003091E50095E6A9012091EC00822F54
:101F9000817020FF06C08091E80080FF06C080E0CD
:101FA00008952091E80022FD1AC08091A2028823A2
:101FB00089F0853089F08091EB0085FD0FC020917C
:101FC000E4003091E50042175307F9F29150E1F631
:101FD00084E0089582E0089583E0089581E0089503
:101FE0008091A40287FF13C08091E80082FF06C0A1
:101FF0008091E8008B778093E80004C08091A20272
:102000008111F2CF08958091A2028823D9F38091A3
:10201000E80080FFF8CF8091E8008E77ECCF982F12
:102020009093E900242F762F50E0891731F07091BA
:10203000EC002091ED005091F00021FD07C09F5F62
:10204000973071F78093E90081E008953091EB00BB
:102050003E7F3093EB003091ED003D7F3093ED00FB
:102060003091EB0031603093EB007093EC002093E3
:10207000ED005093F0002091EE0027FDE0CF80E0CE
:102080000895B0E0A0E0E7E4F0E10C940733C8ED78
:10209000D0E088818F7E8883E7EDF0E080818160E9
:1020A000808384E082BF81E08093950288818E7F67
:1020B000888302EE10E0F80110821092DA0081EEBF
:1020C000C82ED12CF601108288818F778883888171
:1020D0008068888388818F7D888319BC1092A202D2
:1020E0001092A3021092A1021092A00290EEE92E8B
:1020F000F12CF70180818B7F8083888181608883C8
:1021000042E060E080E00E940F10F60180818E7F47
:102110008083F801808181608083808188608083F2
:10212000F70180818E7F8083888180618883CDB72D
:10213000DEB7E8E00C942333FC018091AA02909171
:10214000AB0286179707A0F06115710529F49091ED
:10215000E8009E779093E80090E06115710551F4D6
:10216000911108C08091E80082FF34C080E008959A
:10217000BC01F2CF8091A2028823C1F18530C1F168
:102180008091E80083FD30C08091E80082FDEACFB5
:102190008091E80080FFE1CF8091F3002091F20070
:1021A000382F6115710519F02830310558F091E08C
:1021B0002830310509F090E02091E8002E77209337
:1021C000E800CBCF81918093F100615071092F5FBE
:1021D0003F4FE7CF8091A202882341F0853041F044
:1021E0008091E80083FFBECF81E0089582E00895EA
:1021F00083E008950895089580919702089587E7F0
:1022000097E7909301088093000888E19AE00FB661
:10221000F894A895809360000FBE90936000FFCF64
:102220002FB7F8946091910270919202809193027D
:10223000909194022FBF0895A3E0B0E0E2E2F1E1B3
:102240000C940D3320918E0230918F02281739079C
:10225000A1F090938F0280938E02E0918C02F09116
:102260008D02309751F024E029839B838A83068076
:10227000F781E02DCE01019609952396E2E00C94BA
:102280002933A3E0B0E0E7E4F1E10C940D332091B1
:102290008A0230918B0228173907A1F090938B02A4
:1022A00080938A02E0918C02F0918D02309751F078
:1022B00023E029839B838A830680F781E02DCE016A
:1022C000019609952396E2E00C942933E0918C0263
:1022D000F0918D02309729F00190F081E02D099561
:1022E000089580E008950E9466110895FA01811111
:1022F00001C0FB010995089580917C02982F9E7F73
:1023000029F48170826080937C0208958A32E8F318
:1023100081708862F8CFAF92BF92DF92EF92FF9206
:102320000F931F93CF93DF93082F162FE901E42F0C
:10233000F0E0E15FF94E611110C0E4915E2F4E2F85
:102340004983E8835A83DF91CF911F910F91FF90CA
:10235000EF90DF90BF90AF900895E62EF12C44915E
:10236000D42EE42FF0E026E0829FC00111242FEF4D
:1023700030E0B9010E94E932802F90E0880F991F68
:1023800055E5569FD001579FB00D11248A1B9B0B1A
:10239000982F990F890F5901AE18BF08AE9ED00132
:1023A000AF9EB00DBE9EB00D11245B2F189F800113
:1023B0001124012F11275901A01AB10AAE9E8001E4
:1023C000AF9E100DBE9E100D11245901A81AB10820
:1023D000AE9CC001AF9C900DBE9C900D1124892F26
:1023E0009927281B390B2E9FC0012F9F900D3E9FD0
:1023F000900D1124E92F62307105A1F050F46115A0
:10240000710509F49DCF6130710581F0EB2F512FDB
:1024100097CF6430710569F080F06630710509F47A
:102420008FCFF4CFE42F4B2F592F8ACFE42F412F9A
:1024300087CFEB2F542F492F83CF4B2F5D2DE12FCB
:102440007FCF80E00895F894E82FE295EF70F0E0F8
:1024500031A1282F2F7081E090E001C0880F2A95CC
:10246000EAF7982F9095932391A392A1892B82A3A9
:10247000789408959091D10192FF10C041E0282FE7
:102480002471243009F040E031E0282F28712830F1
:1024900009F030E0431711F02CE0822793FF10C0C1
:1024A00041E0282F2471243109F040E031E0282F49
:1024B0002871283109F030E0431711F02CE0822711
:1024C0003091D20130FF10C051E0282F217121300E
:1024D00009F050E041E0282F2871283009F040E051
:1024E000541711F029E0822731FF10C041E0282F56
:1024F0002171213109F040E031E0282F2871283185
:1025000009F030E0431711F029E0822794FD877E1F
:10251000089582389105B9F1B0F48133910509F439
:102520007DC048F48932910509F46DC08A32910565
:1025300009F47BC008958533910509F45FC08933A0
:10254000910509F10895833E9105D9F138F4803E53
:10255000910529F1823E910579F10895863E910514
:10256000D9F1873E910509F43EC0843E910541F5BD
:102570002091D20121FF24C08091D10184FD19C096
:1025800087EE90E008952091D101237009F05AC0A0
:102590002091D20123FF14C089E290E00895209198
:1025A000D10120FD38C03091D20130FF09C024FF95
:1025B00043C090E080E008952091D10122FDF7CF43
:1025C00008952091D10122FD3AC03091D20130FD11
:1025D00039C024FFF5CFEDCF2091D10123FFF0CFFB
:1025E00024FDE7CFCDCF2091D10123FD2EC0309126
:1025F000D20131FFEECF84EE90E008952091D10119
:1026000025FFDECFC9CF2091D10125FD21C020912A
:10261000D20123FFD5CF89E390E0D2CF2091D10121
:1026200026FFCECF8AE290E008952091D10126FFC7
:10263000C7CF81E390E0089583EE90E0089582EEA5
:1026400090E0089580EE90E0089586EE90E0089581
:1026500085E390E008951F93CF93DF930E94891242
:10266000EC01C11580E5D807F0F5C11580E4D80765
:1026700008F09CC0C03ED10520F5CD3CD10508F046
:1026800082C0C83AD10578F4C53AD10508F073C0C4
:10269000C130D10519F1209709F1C430D105F0F40A
:1026A000D0E0C0E01BC0C33CD105D0F7C85AD0E091
:1026B000CC0FDD1FC05EDE4F0990D881C02DD464E1
:1026C0000DC0C11580E2D80708F0D1C0C11581E066
:1026D000D80708F05AC0C83ED10510F7CE01DF91E7
:1026E000CF911F910895C03682E5D80718F5C03400
:1026F00082E5D80708F06BC0C03282E5D80708F041
:102700005FC0C11582E5D80708F497C02C2F269525
:10271000269580E2289F900111248C2F8370C1E0C0
:10272000D0E002C0CC0FDD1F8A95E2F7C22BD32B7D
:10273000DD68D4CFC03A82E5D80760F4C03882E5BE
:10274000D80708F459C0CF71D0E0DC2FCC27C46F74
:10275000D06AC4CFC03C82E5D80708F462C0C03E4E
:1027600082E5D80708F09CCFDC2FCC27CC27DF717F
:10277000C06FD06AB3CFC55AD0E0C35EDE4FC88108
:10278000D0E0D064ABCFD065A9CF8D2F0E943A1294
:10279000182FCE0199270E948912C12FD0E0DC2F7B
:1027A000CC27CC27DF71C82BD92B98CFCE01992706
:1027B0000E948912CC27DF70C82BD92BD06A8ECF0C
:1027C000CF71D0E0DC2FCC27C16FD06A87CF2C2F00
:1027D00026952695277080E2289F900111248C2F42
:1027E0008370C1E0D0E002C0CC0FDD1F8A95E2F714
:1027F000C22BD32BDC6872CF2C2F26952695277001
:1028000080E2289F900111248C2F8370C1E0D0E0DA
:1028100002C0CC0FDD1F8A95E2F7C22BD32BDA68FA
:102820005DCF8C2F8F710E943A12C82FD0E0DC2F21
:10283000CC27CC27DF71D06251CF8C2F8F710E94B3
:102840003A1255E0D695C7955A95E1F7CF70D0E08A
:10285000DC2FCC27282F30E084FF05C044E0220F76
:10286000331F4A95E1F7C22BD32BD06937CF8D2F79
:102870008F710E943A12182FCE0199270E94891257
:10288000C12FD0E0DC2FCC27CC27DF71C82BD92B70
:10289000D2CF80959091C20198239093C201089560
:1028A000E4E9F1E09191891303C0DF0111971C92D3
:1028B00091E0EA39F907B1F70895A4E9B1E0EFEF43
:1028C00090E02D91821751F0EF3F19F4211101C0D2
:1028D000E92F9F5F9630A9F7EF3F09F408950E2E78
:1028E000000CFF0BEE56FE4F828308958091E502A7
:1028F0009091AC02981301C008958F5F8770FACF52
:10290000292F973078F5863068F590E036E0239FE0
:10291000800D911D1124682F677023E0969587958F
:102920002A95E1F7FC01EE0FFF1FE80FF91FE256B1
:10293000FE4F50E040E080E0219130E0062E02C0E2
:10294000369527950A94E2F721703327042E01C0AB
:10295000220F0A94EAF7822B4F5F5F4F43305105F5
:1029600059F7089580E00895292F973098F586301B
:1029700088F590E036E0239F800D911D1124282FCB
:10298000277041E001C0440F2A95EAF723E09695AD
:1029900087952A95E1F7FC01EE0FFF1FE80FF91F5D
:1029A000E256FE4F30E020E070E05191DF011197D8
:1029B000CB01022E02C0969587950A94E2F78170AA
:1029C00081958527842385278C932F5F3F4F233064
:1029D000310559F70895982F9670963021F4886044
:1029E0008093D0010895877FFBCF9091D00121E0A3
:1029F00030E0F90101C0EE0F8A95EAF7D90102C073
:102A0000AA0FBB1F6A95E2F7EA2B01C0220F4A9575
:102A1000EAF7892F8E23E81305C0292B822F0E9405
:102A2000EB14089520952923F9CF21E030E001C06F
:102A3000220F8A95EAF720958091D00182230E9487
:102A4000EB1408959091B701809589238093B70185
:102A5000282F277069F4891759F09091D20192FFBD
:102A600007C08695869586950E9415151092B70128
:102A7000089521E030E001C0220F8A95EAF78091A5
:102A8000D001822B0E94EB1408958093C301089516
:102A9000809123028531F8F480919B0190E00196AA
:102AA00065E070E00E94403380939B0124E030E0B9
:102AB000281B390B4CE752E0249FC001259F900D45
:102AC000349F900D11248854974F0E943E0F089513
:102AD0008CE396E0FACF8832D8F380919A0190E0A7
:102AE00001968170992780939A0121E030E0281B9C
:102AF000390B4CE752E0249FC001259F900D349F75
:102B0000900D11248C5B9E4FE0CFCF93DF93C0914B
:102B1000F204D091F3048A30C1F42091E902CE018D
:102B2000825F9240622F70E00E94E932281B822F60
:102B300066E00E943433C82FC15018F4DF91CF9162
:102B4000089580E20E948515F7CF8D30E9F4C25FC9
:102B5000D2402091E902622F70E0CE010E94E9325A
:102B6000281B822F9E01280F311D2115324018F09D
:102B700080E0D0E0C0E0C80FD11DCE50DD4FD09333
:102B8000F304C093F204DACF96E0FE01AAEEB2E0BD
:102B900001900D929A95E1F7803E08F458C086E0C6
:102BA000FE0111928A95E9F7C091F204D091F304E5
:102BB00046E050E0BE018AEE92E00E9410349E0191
:102BC000225F3240892B41F1C90145E096958795F6
:102BD0004A95E1F741E050E0BA0102C0660F771F65
:102BE0008A95E2F7CB016091F0027091F102862B99
:102BF000972BB9016B5F7F4FE5E076956795EA9576
:102C0000E1F702C0440F551F6A95E2F7842B952B1C
:102C10009093F1028093F0022A5F3F4F4091E902C6
:102C2000642F70E0C9010E94E932481B463010F45D
:102C3000240F311D211572E0370710F030E020E03D
:102C40002E503D4F3093F3042093F20477CFF6E0FB
:102C50008F9FB00111246350774E46E050E0CE01C3
:102C60000E94FA33A1CFCF93DF93EC01FE01849150
:102C7000811103C0DF91CF9108950E94851521969F
:102C8000F5CF8091C2019091C101892B809392016F
:102C90009091C001992391F0892B8093920120E0BB
:102CA00084E991E0FC013191CF0131112F5FF1E016
:102CB0008A399F07B9F721111092C00148E050E00E
:102CC00068EB71E082E991E00E941034892BA9F051
:102CD00088E0E2E9F1E0A8EBB1E001900D928A957D
:102CE000E1F7E0918C02F0918D02309731F0028093
:102CF000F381E02D82E991E0099508951092C201D7
:102D0000E4E9F1E086E0DF011D928A95E9F790E0C1
:102D100080E00E94411190E080E00E941C1110921E
:102D2000C1010E9441160895AAE2B0E0EAE9F6E185
:102D30000C940C3384EA92E02091F100DC012D9395
:102D4000CD01B2E08C3A9B07B9F78091A5028330A0
:102D500009F472C0B8F4813009F449C0823009F432
:102D6000B3C08091E80083FF8BC28091A402909150
:102D7000A5029A3008F084C2E92FF0E0E958FB4C34
:102D80000C9495338A3009F48EC08B3009F471C0ED
:102D9000893039F78091A402813219F78091A80215
:102DA0009091A902009711F00297D9F68091E8005E
:102DB000877F8093E8008091E80082FF38C090917F
:102DC000F3008091F200029731F48091F10081309C
:102DD00011F0863021F48091F10080939702809168
:102DE000E8008B778093E8000E94F00FBACF8091C3
:102DF000A402813A09F0B5CF8091E800877F8093E3
:102E0000E8008091A8029091A902892B61F468E002
:102E100088E992E070E00E949C108091E8008B7736
:102E20008093E8009ECF60E090E080E0F3CF809157
:102E3000A2028111C0CF95CF8091A402813A09F0FE
:102E400090CF8091A8029091A902892B09F089CF97
:102E50008091E800877F8093E8008091E80080FF00
:102E6000FCCF80911C018093F1008091E8008E7767
:102E7000B9CF8091A402813209F073CF8091A8026A
:102E80009091A902892B09F06CCF8091E800877F8F
:102E90008093E8000E94F00F8091A60280931C01AD
:102EA0000E947E165ECF8091A402813209F059CF34
:102EB0008091E800877F8093E8000E94F00F809166
:102EC000A702809396024DCF8091A402813A09F027
:102ED00048CF8091E800877F8093E8008091E800E8
:102EE00080FFFCCF80919602BECF803899F0823867
:102EF00009F0C6C18091A8028F70873008F0C0C168
:102F00008093E9008091EB0085FB882780F910927F
:102F1000E90006C08091A0029091A1029111826007
:102F20009091E800977F9093E8008093F1001092D1
:102F3000F1008091E8008E779FC1882309F48DC14C
:102F4000823009F09DC18091A602811190C18091CB
:102F5000A8028F702FEF280F263008F091C18093C0
:102F6000E9002091EB0020FF82C1933031F4809181
:102F7000EB0080628093EB007AC19091EB0090614E
:102F80009093EB0021E030E001C0220F8A95EAF730
:102F90002093EA001092EA008091EB008860EACF6B
:102FA00081116EC11091A6021F778091E300807895
:102FB000812B8093E3008091E800877F8093E80075
:102FC0000E94F00F8091E80080FFFCCF8091E30029
:102FD00080688093E30082E0111183E08093A20275
:102FE0004FC18058823008F04BC12091A602309129
:102FF000A7022C3DE3E03E07A1F583E08A838AE245
:1030000089834FB7F894DE01139620E03EE051E249
:10301000E32FF0E050935700E49120FF03C0E295C6
:10302000EF703F5FEF708E2F90E0EA30C0F0C796F0
:103030008D939D932F5F243159F74FBF8091E80006
:10304000877F8093E8006AE270E0CE0101960E94DB
:103050009C108091E8008B778093E80011C1C096A6
:10306000E7CF8091A8029091A902432F55274330C2
:10307000510509F44AC078F54130510509F47AC088
:103080008BE590E0E8E6F8E14230510509F0F8C040
:103090002091E800277F2093E8002091AA02309138
:1030A000AB028217930708F49C0140E0211531051B
:1030B00009F065C0411163C08091E80082FDC9CF6D
:1030C0008091A202882329F2853019F28091E800CC
:1030D00083FFF2CFBECF4132510509F43CC04232EA
:1030E000510509F0CDC08330910508F0C9C0FC013D
:1030F000EE0FFF1FED57FE4F0190F081E02D80583D
:103100009E4FDC018C9190E01AC0332721303105AD
:10311000D1F02115310561F02230310509F0B0C040
:10312000E5EDF8E1E4918E2F90E0E5EDF8E107C0E0
:10313000E9EFF8E1E4918E2F90E0E9EFF8E10097F4
:1031400009F49EC0A5CFEBEEF8E1E4918E2F90E05C
:10315000EBEEF8E1F4CF8330910508F091C0880FD1
:10316000991FFC01E757FE4F0190F081E02D89E0A7
:1031700090E08ECF82E190E0E3ECF8E189CF80919E
:10318000A202882309F465CF853009F462CF8091CB
:10319000E80083FD5ECF8091E80082FD8DCF8091B5
:1031A000E80080FF83CF9091F3008091F200211519
:1031B000310519F08830910550F041E0089709F089
:1031C00040E08091E8008E778093E8006FCF4491D3
:1031D0004093F1003196215031090196E8CF8038B3
:1031E00009F04EC08091E800877F8093E8008091CD
:1031F000A3028093F1009DCE811142C01091A602DE
:103200001230F0F58091E800877F8093E8001093FA
:10321000A3020E94F00F112311F084E005C08091F9
:10322000E30087FDFACF81E08093A20242E061ECE7
:1032300081E00E940F1042E261EC84E00E940F10D6
:1032400042E261EC82E00E940F1042E260EC83E017
:103250000E940F108091A20213C08091A6028130BB
:1032600079F481E0933009F080E08093A10210921C
:10327000E9008091E800877F8093E8000E94F00FCA
:103280008091E80083FF0AC08091E800877F8093E7
:10329000E8008091EB0080628093EB00AA96E3E067
:1032A0000C942833882321F00E9449140E9441166F
:1032B0000895882339F09091C201982B9093C20110
:1032C0000E9441160895882309F44DC0823879F48C
:1032D0000E94731181FF47C089E30E945D140E9420
:1032E000411689E30E9450140E94411608958338C4
:1032F00059F40E94731180FF36C083E50E945D146B
:103300000E94411683E5EECF843859F40E94731170
:1033100082FF29C087E40E945D140E94411687E461
:10332000E1CF9CEF980F913AE8F290E2980F983035
:1033300050F4877091E001C0990F8A95EAF7892FC0
:103340000E944914D1CF9BE5980F933028F490E068
:1033500080E00E9441110895885A8B3120F490E05A
:1033600080E00E941C1108950F931F93CF93DF9369
:103370008B01EA019091A202943061F58093E900FB
:103380008FEF9091E800815095FD06C095ED9A95DC
:10339000F1F700008111F5CF8091E80085FF1AC098
:1033A0000E94BF0F811111C08091E80085FD06C009
:1033B0008091E8008E778093E800F2CFF801819148
:1033C0008F018093F100219779F78091E8008E7743
:1033D0008093E800DF91CF911F910F91089543E012
:1033E00050E0BC0184E00E94B4190895CF93DF93AC
:1033F000EC0148E050E0BC0181E00E94B41988E093
:10340000FE01A8E9B2E001900D928A95E1F7DF9103
:10341000CF91089580917C0280FD0AC0EBE5F2E037
:10342000118210821282339652E0EC37F507C1F711
:10343000539A3BB1377F2BB128604FB7F8948BE597
:1034400092E0FC015191CF0168E02BB9000000C06F
:1034500057FF3BB9550F000000C000C000C03BB98A
:1034600000C06A9591F7F2E08C379F0751F74FBF84
:103470008FE594E00197F1F700C000000895EF9206
:10348000FF921F93CF93DF93EC018BE5E82E82E050
:10349000F82E10E08C81970140917F0260917E02AE
:1034A000810F0E948B11195E83E0E80EF11C1D3F15
:1034B00089F70E940A1A9A818C8190FF08C08F5F59
:1034C0008C83DF91CF911F91FF90EF9008958150F1
:1034D000F7CF90917C0290FF0CC0EBE5F2E0818386
:1034E00060834283339692E0EC37F907C1F70E947C
:1034F0000A1A0895A3E0B0E0E0E8FAE10C940B3377
:103500008C0180917C0280FF10C09E012F5F3F4F95
:1035100040917F0260917E02F80184810E948B11AC
:103520004B8169818A810E94691AF80184818F5FC9
:1035300084832396E4E00C942733CF93C82F882309
:10354000C9F08238C9F40E94731181FD13C089E368
:103550000E945D140E9441162FEF87EE93E02150E8
:1035600080409040E1F700C0000089E30E945014C1
:103570000E944116CF9108958338A1F40E947311DF
:1035800080FDF8CF83E50E945D140E9441162FEF65
:1035900081EE94E0215080409040E1F700C00000AF
:1035A00083E5E4CF8438A1F40E94731182FDE2CF59
:1035B00087E40E945D140E9441162FEF81EE94E093
:1035C000215080409040E1F700C0000087E4CECF5A
:1035D0008CEF8C0F813A68F4E4E9F1E08191C8172F
:1035E000A1F121E0EA39F207C9F78C2F0E945D149E
:1035F000BFCF80E28C0F883068F4C77021E030E0E4
:1036000001C0220FCA95EAF78091C201822B8093F4
:10361000C201AECFEBE5EC0FE33040F4F0E0E35E47
:10362000FE4F808190E00E944111A4CFC85ACB3157
:1036300008F0A0CFEC2FF0E0EE0FFF1FE05EFE4F92
:10364000808191810E941C1195CF8C2F0E94501473
:103650000E944116CACF1F93CF93DF93182FD0E05B
:10366000C0E0893311F4C0E5D0E0812F0E949D1A9B
:10367000209739F4812F0E946319DF91CF911F9118
:1036800008958FE99FE00197F1F700C000002197AE
:10369000EFCF0E947E162FEF84E39CE02150804004
:1036A0009040E1F700C0000088E19AE00FB6F8947E
:1036B000A895809360000FBE90936000FFCFCF93DA
:1036C000DF93C9E7D1E060E0CE010E94413421964A
:1036D000C11584E0D807B9F7DF91CF9108951F9302
:1036E000CF93DF93122F8430E0F46730D0F446306C
:1036F000C0F4C42FD0E0CC0FDD1F9CE0699FC00D4B
:10370000D11D112494E5899FC00DD11D1124632F73
:10371000CE0189960E944134612FCE018A960E9483
:103720004134DF91CF911F910895AF92BF92CF9214
:10373000DF92EF92FF921F93CF93DF9388E1C82E21
:1037400087E1D82ED0E07601C0E014C0F5012591C4
:103750003491412F6C2F8D2F0E946F1B82E0A80E99
:10376000B11C1F5F163091F78CE0E80EF11CCF5FA3
:10377000C73019F0570110E0E9CFDF5F84E5C80ECC
:10378000D11CD43001F7DF91CF911F91FF90EF90C2
:10379000DF90CF90BF90AF900895CF93C82F6FEF79
:1037A000811163E285E290E00E9441346FEFC11124
:1037B00060E186E290E00E9441346FEFC11167E161
:1037C00087E290E00E944134CF91089580E00E940A
:1037D000CD1B60E088E290E00E9441340E94951B7E
:1037E0000E945F1B81E00E94CD1B08950F931F93E1
:1037F000CF93DF93843030F5673020F5463010F5F5
:10380000C42FD0E0CC0FDD1F2CE0629FC00DD11D76
:10381000112434E5839FC00DD11D1124CE0189965A
:103820000E941D34082F10E0102F0027CE018A9629
:103830000E941D349801282BC901DF91CF911F915F
:103840000F91089590E080E0F8CF462F773040F454
:10385000663030F4843020F4672F0E94F61B089500
:1038600090E080E00895CF92DF92FF920F931F9334
:10387000CF93DF936C010091D0018091C301082B9D
:10388000C3E0D0E010E0FC2EC8010C2E02C09595DC
:1038900087950A94E2F780FD0CC02197A0F7F12CE0
:1038A0008F2DDF91CF911F910F91FF90DF90CF90DF
:1038B0000895B6018C2F0E94251C0E942B1301979E
:1038C00061F3EECFCF93DF93EC010E94331CBE0176
:1038D0000E94251C0E942B13DF91CF910895FC01BB
:1038E00024812223C1F0808191810E94621C9295E3
:1038F0009F70963091F058F4925F9F70923058F418
:10390000803F19F030F4883E30F481E008959A5FEA
:10391000F4CF843FD1F380E00895883EB0F3813F37
:10392000D1F7F3CFA6E0B0E0E8E9FCE10C940C336A
:1039300049835A8349815A819923A1F0222391F026
:10394000CA010E94331C182F682F89819A810E9416
:10395000B41469817A81812F0E94251C2696E3E0A8
:103960000C942833CA010E948014182FF2CF85E2EC
:1039700090E00E941D34833289F486E290E00E9438
:103980001D34803159F487E290E00E941D3491E0AB
:10399000873109F090E0892F8170089580E0FCCF95
:1039A000B0E0A0E0E6EDFCE10C9407336C017B0194
:1039B00064E670E088E70E9403328C01E601EC0CBB
:1039C000FD1C17FD0BC0FE01849164E670E00E94AF
:1039D0006F328C012196CE15DF0599F70E94E532F2
:1039E00081E00115110509F080E0CDB7DEB7E8E010
:1039F0000C9423338091880290918902911103C025
:103A000091E089270895882369F062E070E086E1FB
:103A100097E10E94D01C811103C080918802089513
:103A20001092880280918802EBCFCF93C0918802D8
:103A3000809189028823D1F00E941011605A75414B
:103A40008F4F9F4F6093840270938502809386020C
:103A500090938702C11108C062E070E084E197E1B1
:103A60000E94D01C811105C0C09188028C2FCF917B
:103A7000089581E080938802F7CFB0E0A0E0E3E40E
:103A8000FDE10C94033349015A016B017C010E9452
:103A90007C118401A4016A2D7B2D88E090E00E94B6
:103AA000533494014A2D5B2DB601C70100E20E94F8
:103AB000D033622F84E290E00E944134CDB7DEB76C
:103AC000ECE00C941F33A3E0B0E0E9E6FDE10C94D8
:103AD0000033F82E762EE42E622E80917C0280FF39
:103AE0002EC0E82FE695AE2FB0E0A559BE4F9C91B1
:103AF000909359028E7F823031F59E012F5F3F4FA8
:103B00008F2D0E948B114B8169818A810E94691AD5
:103B1000F0927D0270927E02E0927F02662079F040
:103B200020917C0260918002709181023F2D472D8F
:103B30005E2D80918202909183020E943D1D23960A
:103B4000EFE00C941C33923019F4F0907D02E0CF3A
:103B50009530D9F39B30E1F6EB508E2F8170582EC3
:103B6000E695F0E0E15FF84EE4910E2F10E08BE572
:103B7000C82E82E0D82EB12CA12C9BE0892E912C4E
:103B8000C501B4010E94E9328F2D511013C0860F78
:103B900096014E2D672D0E948B11A00EB11E83E061
:103BA000C80ED11C8CE7C81682E0D80649F70E94DF
:103BB0000A1AAECF861BECCFECE7F2E0438120E19E
:103BC000421B08F440E021E0628181810E94631D74
:103BD0000895ECE7F2E0438120E1420F08F44FEF53
:103BE00021E0628181810E94631D0895ECE7F2E08B
:103BF000628120E1621B08F460E021E04381818161
:103C00000E94631D0895ECE7F2E0628120E1620FFB
:103C100008F46FEF21E0438181810E94631D0895C4
:103C2000ECE7F2E0818121E04381628180510E94D2
:103C3000631D0895ECE7F2E0818121E04381628118
:103C4000805F0E94631D089580918002882319F08F
:103C500081508093800220917C0230917D024091BE
:103C60007E0250917F02609180027091810280916A
:103C70008202909183020E943D1D089580918002EE
:103C8000833018F48F5F8093800220917C02309102
:103C90007D0240917E0250917F026091800270917E
:103CA000810280918202909183020E943D1D0895BD
:103CB000ECE7F2E083E0808311828FEF82838383DD
:103CC0001482758123E030E04FEF5FEF60E0868182
:103CD00097810E943D1D08959091D20192FB222769
:103CE00020F9281779F080FB92F99093D201609126
:103CF000D1017091D20184E090E00E945F3482E0B3
:103D00000E942215089590E080E00E942B34863EA8
:103D10009E4F19F40E94B71C089580E00895A8E012
:103D2000B0E0E5E9FEE10C940D3366EE7EEF90E045
:103D300080E00E945F3460E082E090E00E944134C5
:103D400060E083E090E00E9441341092C30160E0A3
:103D500074E184E090E00E945F3460E086E090E0EF
:103D60000E9441346FEF87E090E00E94413440E0D0
:103D700050E0BA0188E090E00E94533460E084E2B1
:103D800090E00E94413460E087E190E00E9441347D
:103D900060E08CE090E00E94413460E08DE090E0D3
:103DA0000E94413419821A821B821C821D821E824B
:103DB0001F82188648E050E068E170E0CE0101966D
:103DC0000E94313440E050E0BA0180E290E00E946D
:103DD000533480E00E94CD1B0E94E61B40E050E07F
:103DE000BA018FE090E00E94533440E050E0BA0105
:103DF00083E190E00E9453342896E2E00C9429334A
:103E00001F920F920FB60F9211242F933F934F934F
:103E10005F936F937F938F939F93AF93BF93CF9352
:103E2000DF93EF93FF93D091E900DF708091EC0076
:103E3000C82FC17080FDC0E81092E9008091F000A9
:103E4000877F8093F00078940E9494161092E90086
:103E50008091F00088608093F000CD2BCF70C093EC
:103E6000E900FF91EF91DF91CF91BF91AF919F91C9
:103E70008F917F916F915F914F913F912F910F9013
:103E80000FBE0F901F9018951F920F920FB60F92B2
:103E900011242F933F934F935F936F937F938F934F
:103EA0009F93AF93BF93EF93FF938091E10082FFC5
:103EB00009C08091E20082FF05C08091E1008B7F04
:103EC0008093E1008091DA0080FF24C08091D800C7
:103ED00080FF20C08091DA008E7F8093DA0080918D
:103EE000D90080FF9DC080E189BD82E189BD09B410
:103EF00000FEFDCF81E08093A202809195028111A6
:103F000009C00E94A00F0E9441108091E2008460CD
:103F10008093E2008091E10080FF17C08091E20071
:103F200080FF13C08091E2008E7F8093E200809139
:103F3000E20080618093E2008091D80080628093EB
:103F4000D80019BC85E08093A2028091E10084FF33
:103F50002BC08091E20084FF27C080E189BD82E10F
:103F600089BD89B5982F917080FFFBCF8091D800D3
:103F70008F7D8093D8008091E1008F7E8093E10057
:103F80008091E2008F7E8093E2008091E200816068
:103F90008093E2008091A302882309F447C084E063
:103FA0008093A2028091A2028091E10083FF27C04A
:103FB0008091E20083FF23C08091E100877F80939E
:103FC000E10082E08093A2021092A3028091E100BE
:103FD0008E7F8093E1008091E2008E7F8093E200EB
:103FE0008091E20080618093E20042E060E080E046
:103FF0000E940F108091F00088608093F000FF9184
:10400000EF91BF91AF919F918F917F916F915F9150
:104010004F913F912F910F900FBE0F901F901895C9
:1040200019BC1092A2021092950274CF8091E30005
:1040300087FD93E09093A202B5CF78941F921FB6AC
:104040001F9211248F939F93AF93BF9380919102FE
:1040500090919202A0919302B09194020196A11DB9
:10406000B11D8093910290939202A0939302B0931A
:104070009402BF91AF919F918F911F901FBE1F908F
:1040800018959C014FB7F8948091910290919202FB
:10409000A0919302B09194024FBF821B930B08959D
:1040A0002FB7F8948091910290919202A09193027F
:1040B000B09194022FBF08950F931F93CF93DF9376
:1040C000C62FD42F022FFC0185818823A9F060938D
:1040D000E8020E9450209093E7028093E602C770A6
:1040E00081E001C0880FCA95EAF70E945919DF9153
:1040F000CF911F910F9108958091E802681332C00B
:104100008091E6029091E7020E944120883C91054F
:1041100048F510E21D0FCD17B9F080E28C0F883002
:1041200040F4C77081E001C0880FCA95EAF70E9489
:104130005219183048F481E09D2F977001C0880F04
:104140009A95EAF70E945919802F0E942B1B18306C
:1041500070F6D77081E001C0880FDA95EAF70E9407
:104160005219C5CFC77081E001C0880FCA95EAF720
:10417000F6CF60917C02669570E04BE050E081E103
:1041800091E00E940334892B19F481E080935A0254
:104190000E9450209093540280935302089590916E
:1041A0007C0290FF34C09170811132C09260909374
:1041B0007C02662391F020917C0230917D02409137
:1041C0007E0250917F026091800270918102809105
:1041D0008202909183020E943D1D60917C0266954F
:1041E00070E04BE050E081E191E00E940334892BC4
:1041F000B1F010925A0281E08093560220E0409183
:104200007F0260917E0280917D020E94631D08956D
:10421000853110F09862CBCF880F982BC8CF0E94C1
:10422000B920E9CFECE7F2E080818160808360E033
:1042300086950E94CF20089580917C0286958150BA
:1042400009F484E161E00E94CF20089580917C020E
:1042500086958F5F853108F081E061E00E94CF2074
:10426000089590917C0290FF08C09695981728F0C9
:10427000961718F40E942621089561E00E94CF202D
:104280000895A8E0B0E0E7E4F1E20C94FF328C017D
:10429000DC0114968C911497882309F4E2C021E084
:1042A0004C9111965C91119712966C9112971396FE
:1042B0007C91139715969C910E94921C7C01F801A9
:1042C0002581222309F466C19A9581159F4408F03F
:1042D00078C0C7019927AC014450510944325105B7
:1042E00018F08B970E9780F4E091E401F0E0EE0F68
:1042F000FF1FE751FE4F808191818F3FAFE79A0703
:1043000019F0019691838083C701975780389105F2
:1043100008F089C5BFE0BE1508F493C08FEF93E0A5
:104320000E941D3481118DC069E7A62EBB24B39471
:10433000E11051C0FE01339686E0DF011D928A959F
:10434000E9F75AE0452E7501BFEFEB1AFB0AC501EC
:104350000E941D3489831A82882309F472C0813037
:1043600009F083C06501E2E0CE0ED11CC7010E94B6
:104370001D348A83882309F464C09FEF980F93301B
:10438000C0F5F3E0AF0EB11CC6010E941D348B8353
:10439000882309F456C01C82DE0111967D01F701C5
:1043A0002081222381F2213009F09FC091818281F6
:1043B000913009F05CC0F2E0EF0EF11C0E942B1B63
:1043C0005DC090E080E03FEFE316F10411F008F0EB
:1043D00082CFC70180CFA114E4E0BE0691F1C501F0
:1043E0000E941D34811101C0EA94FFEFAF1ABF0A89
:1043F0009FCF5601843081F642E0E42EF12C560125
:104400002FEFA21AB20AC6010E941D34E1E0F0E0CB
:10441000EC0FFD1FEE0DFF1D8083882391F08C377C
:1044200041F4E2E0F0E0EC0FFD1FEE0DFF1D108205
:10443000B3CF3FEFE31AF30A650187E0E816F10412
:10444000F1F68091B701877061F0D80115968C91D3
:10445000882339F08091D20182FF03C082E00E945C
:1044600022152896E0E10C941B33570195CF92302A
:1044700049F422E0E20EF11C0E949D1AEFEFEE1AC1
:10448000FE0A8DCF933031F432E0E30EF11C0E942E
:104490006319F4CF943021F08FEFE81AF80AEECFC9
:1044A00092E0E90EF11C30E020E0B7016F5F7F4F32
:1044B000D70111964C918053990B8A30910550F099
:1044C00021503109D8F2EFE9FFE03197F1F700C050
:1044D0000000F6CF429EF001439EF00D11249C0196
:1044E0002E0F3F1F842F7B01E0CFE22FF0E0EC5A2C
:1044F000FA4E5490822F86958695869590E0FC0121
:10450000EC5BFA4E64902770712C022E02C07594F9
:1045100067940A94E2F731E063227724FC01EC5CB3
:10452000FA4E8490912C022E02C0959487940A949E
:10453000E2F7A1E08A229924FC01EC5DFA4EC490D6
:10454000D12C02C0D594C7942A95E2F7B1E0CB22D2
:10455000DD246114710419F081EE0E949D1A81140A
:10456000910419F086EE0E949D1A852D0E942B1B46
:104570008114910419F086EE0E946319611471048C
:1045800019F081EE0E946319C114D10409F476CFA9
:104590008CE214CFFC01E851FC47E730F10508F04C
:1045A00036C4EF57FB4C0C94953326E241EE61EE96
:1045B000C8010E945C2045CF27E245EE65EEF8CFAA
:1045C00026E241EE60EEF4CF27E245EE64EEF0CF56
:1045D00026E241EE62EEECCF27E245EE66EEE8CF52
:1045E00028E241E0EBCF8091D10181608093D1013D
:1045F00095C08091D20188608093D2018FC0809154
:10460000D1018260F3CF8091D1018460EFCF80919E
:10461000D1018860EBCF8091D2018160EDCF809194
:10462000D2018260E9CF8091D1018061DFCF80919A
:10463000D1018062DBCF8091D1018064D7CF0E940D
:104640007E168091D1018068D1CF8091D1018C609C
:10465000CDCF8091D2018360CFCF8091D1018E7F69
:10466000C5CF8091D201877FC7CF8091D1018D7F47
:10467000BDCF8091D1018B7FB9CF8091D101877F50
:10468000B5CF8091D2018E7FB7CF8091D2018D7F3F
:10469000B3CF8091D1018F7EA9CF8091D1018F7D41
:1046A000A5CF8091D1018F7BA1CF0E947E168091F2
:1046B000D1018F779BCF8091D101837F97CF80915C
:1046C000D2018C7F99CF8091D10182FB992790F9FB
:1046D00021E0922790FB82F990FB83F987CF8091AC
:1046E000D201982F909591708E7F892B90FB81F944
:1046F00083CF9091D101892F8F7B96FF806476CFF5
:104700000E947E169091D101892F97FB87F98058DE
:104710006DCF61E08EE090E00E9441346091D10164
:104720007091D20184E090E00E945F340E947E1676
:1047300088CE60E0EFCF9091D101892F8F7E94FFDA
:10474000806154CF9091D101892F8E7F90FF81603D
:104750004DCF9091D201892F877F93FF88604CCFF6
:1047600085E350C385E35CC3211119C38091C20165
:104770008272F701E052F847E531F10508F06BC0AD
:10478000E857FB4C0C94953380917C0280FF19C054
:10479000282F2E7F20937C0230917D0240917E0253
:1047A00050917F026091800270918102809182021B
:1047B000909183020E943D1D10925A020E940A1A93
:1047C00040CE816080937C0261E086950E94CF207C
:1047D00038CE4CE151E266E271E20E94761131CEB0
:1047E00046E251E26CE171E2F8CF40E15EE16AE15C
:1047F0007EE1F3CF4AE15EE160E17EE1EECF46EF9C
:104800005DE163E07EE1E9CF43E05EE166EF7DE1FB
:10481000E4CF4CED5DE169EE7DE1DFCF49EE5DE196
:104820006CED7DE1DACF44E25EE16EE37EE1D5CF6F
:104830004EE35EE164E27EE1D0CF61E081E0C6CF8D
:1048400064E082E00E943121FCCD6AE085E0FACF8D
:1048500064E18BE0F7CFF7E7EF16FCE7FF0609F41A
:1048600060C028E7E2162CE7F20609F45EC0F80102
:104870008581E080F180882309F48BC0C7010E9404
:10488000331CD82E682FC7010E94B414B7018D2D98
:104890000E94251C0E942B137C01882ED80115969E
:1048A000AC90159716969C9092943FE0932280913D
:1048B000B7018770F1F0CA2CAA20E1F08F2D807F1C
:1048C000803451F080E28E0D883098F0911004C051
:1048D0008F2D807E803269F08091D20182FF09C0E5
:1048E00082E00E9422158091B7018770CC24C39486
:1048F0008111C12CBF2CB2942FE0B222BBE0BB15BA
:1049000008F4AFC0EB2DF0E0E356FB4C0C9495336C
:1049100081E00E94391543E062E081E00E94F514D5
:1049200090CD81E00E941515F6CF82E0FBCFBBE56C
:10493000EB16BCE7FB0659F1ECE5EE16ECE7FE06DC
:10494000E1F0FAE5EF16FCE7FF0609F090CF81E011
:104950001BC00E947E162FEF34E38CE021503040C4
:104960008040E1F700C000000E94FF106FEF7FEF72
:1049700090E080E00E945F3432C28091D20182FBDD
:10498000882780F991E089270E946C1E70CF80E013
:10499000FBCFC7010E948014D82E78CFEF2DEF7087
:1049A000DE2E8F2D807F19F0D29490EFD922AA208D
:1049B000B9F0DD2069F080E28E0D883010F08110B2
:1049C00009C08091C201D82AD092C2010E9441162A
:1049D0008E2D45C08091C101D82AD092C101F6CF59
:1049E0008E2D0E946319DD20E1F180E28E0D88306A
:1049F00010F0811004C08D2D0E94491406C0D0947F
:104A00008091C101D822D092C1010E94411629C0D3
:104A1000FF2DFF70DF2E8F2D807F803219F0D29412
:104A200080EFD822882059F021E0821609F481C055
:104A3000AA2009F48DC0992009F44FC0C9CF8091F4
:104A4000D20182FD46C0AA20F1F1DD2039F080912B
:104A5000C201D82AD092C2010E94411680E00E9471
:104A60009D1AAB2DA850BB0B149710F40E94661131
:104A7000CC20A9F08091B70180FD11C0F80115820A
:104A80008695869586950E943915C8010E94412118
:104A90008091B7018695869586950E94151520E030
:104AA000D8014C9111965C91119712966C911297C6
:104AB00013967C91139714968C91149715969C914C
:104AC0000E94921CCECC80E00E946319DD2049F246
:104AD00092CFAA20A1F0911004C08D2D0E945919E7
:104AE000C0CF31E09312BDCF8091C0019D2D98239E
:104AF000D91609F4B6CFD82AD092C001B2CF9110FE
:104B0000B0CF8D2D0E9452199091C0018D2D892317
:104B100029F08D2D809589238093C00180919D017E
:104B20009D2D982309F49DCFD094D822D0929D0139
:104B300098CFAA2029F085E0891508F492CFCDCF2F
:104B400094E0991508F48DCF8D2D0E94521989CFCC
:104B50009920D1F3A9E38A1209C0BFEFE7EEF3E091
:104B6000B150E040F040E1F700C000008E2D0E94FF
:104B7000631977CF8F2D86958695837061F081308C
:104B800009F06FCFC7019370A11002C080E090E0E0
:104B90000E941C1166CFC7019370A11002C080E073
:104BA00090E00E9441115DCF8F2D837091F5A1108F
:104BB00058CF4E2D429546954770440F440F8E2D89
:104BC0008F70042E01C0880F0A94EAF72E2D2071F1
:104BD000E4FE07C02FE030E001C0220F4A95EAF75B
:104BE00020953F2D369536953370323069F050F46C
:104BF0004091C301313029F0822B84230E94451556
:104C000030CF842B822BFACF282B8091C3018227AF
:104C1000F5CF8695AA2011F08F2D8170882309F495
:104C200020CF4E2D429546954770440F440F8E2D50
:104C30008F70042E01C0880F0A94EAF72E2D207180
:104C4000E4FE07C02FE030E001C0220F4A95EAF7EA
:104C500020953F2D369536953370323069F050F4FB
:104C60004091D001313029F0822B84230E94EB1433
:104C7000F8CE842B822BFACF282B8091D00182276B
:104C8000F5CF2F2D2F70F22EAA2029F0822F0E940F
:104C900039158E2D23CF8E2D0E9452198F2D0E94F3
:104CA0001515DFCE8E2D32EF8316B1F1381570F069
:104CB00090EF8916D1F0A1EF8A1691F0AA2009F49D
:104CC0005EC0911085CE8F2D8F712AC0B3EF8B16E9
:104CD00051F1E4EF8E12F2CF8091D20182FD2FC00C
:104CE0008F2D8F71AA20D9F21BC0AA2081F0F4E089
:104CF000F91508F4B6CE2F2D2F7181E090E001C098
:104D0000880F2A95EAF79091D0018927AFCF25E047
:104D1000291508F4A6CEEFCF8F2D8F71A110BFCF2C
:104D20000E9439159ECE80E0AA2009F49FCF9F2DC6
:104D30009F7181E001C0880F9A95EAF797CFAA206A
:104D400099F03F2D3F71F32E832F0E9439158091EA
:104D5000D20182FF07C0A8E0FA9EC001112483603F
:104D60008093B7018F2DDCCF81E00E942215B1E046
:104D7000B91508F076CE82E00E94221572CE9920F5
:104D800059F0893309F0F2CEEFEFF7EE23E0E1506E
:104D9000F0402040E1F7E8CE8F2D8F7180CFB7E74C
:104DA000EB16BCE7FB0609F4B3CD82E0E8E7EE16AC
:104DB000ECE7FE0609F4ADCD33E0E3163CE7F3067D
:104DC00009F4D4CD08F0B3CDE1149CE7F90609F459
:104DD000C0CDA1E0EA16ACE7FA0609F048CD0E9482
:104DE000491BF6E1EF16FCE7FF0609F0BDCC809108
:104DF000C2018A7A91E009F490E090939C018111BC
:104E0000AFCC89E20E945D140E9441161ACB863114
:104E10009C4709F0ABCC80919C018111A3CC89E225
:104E20000E945014F1CFF701E851FC47E730F1053B
:104E300008F4B7CB1092E802C7019057839788F621
:104E400084E090E00E942B349093D2018093D101B2
:104E5000F701E150F047E232F10508F0C4CBE75525
:104E6000FB4C0C949533CF93DF938091B601807FF8
:104E700009F04DC08091B501882309F448C0E09144
:104E8000E5025091AC02C091B101D091B0016091A6
:104E9000B2017091B30147E05E17C9F18E2F90E027
:104EA000E49FF0011124E355FD4F2481222391F169
:104EB000489FF001499FF00D1124DF01A355BD4F1C
:104EC00011962C9111972C1325C02C912D1322C0D3
:104ED00015962C91159721111DC012962D913C917C
:104EE000261B370B283C3105A8F48091B6018F7042
:104EF00080618093B601ED54FD4F80818F70806199
:104F0000808380EB91E00E9441210E947614DF9122
:104F1000CF910895FC013196E770BECFA4E1B0E0D7
:104F2000E4E9F7E20C9403338C0186E0F801DE013A
:104F30001F9601900D928A95E1F7F8018481E58032
:104F400090EBA92E91E0B92E9091B401911128C057
:104F5000882319F1EE20F1F0C8010E946F1CF82E91
:104F60008823C1F087E0F801D50101900D928A9560
:104F7000E1F78091B401813031F48091B0019091DA
:104F8000B1010E94621C0E9433278F2D6496ECE0D1
:104F90000C941F33C8010E944121FF24F394F5CFE4
:104FA000D080C18082809380F090B5012091B201C1
:104FB0003091B301A401421B530BFF2009F4D9C067
:104FC000483C510508F092C08823F9F29091B10154
:104FD0008091B601282F207F09F056C0C91214C055
:104FE0009091B001D91210C0E11048C08F7080615B
:104FF0008093B60180EB91E00E9441218091B6013F
:10500000F8018683F12CC1CFE11038C06C2D8D2DB5
:105010000E94810F6C2D8D2D0E94810FE82E811131
:10502000F1CFDF86C88A8F8598890E94621C292F5C
:1050300022952F70243058F49F70223088F09923E5
:1050400099F0F8019681907F79F4FE2C9ECF2A5F2B
:105050002F70223068F0C8010E944121EF2CF5CF5B
:10506000992311F0882389F3805E883070F3F3CFA1
:10507000803F58F3815F833070F7E7CF8091B601AE
:1050800081608093B601BECFC91207C09091B00174
:10509000D91203C0EE2009F48DC0C8010E946F1C14
:1050A000882309F477CFEE2009F474CF8091B601FC
:1050B000803288F02091B0013091B1013987288782
:1050C0009B868A869091B4019C871D868E87CE012F
:1050D00008960E94412187E0F801A0EBB1E0019021
:1050E0000D928A95E1F70E94332757CF9091B60130
:1050F000292F207F51F480EB91E00E94412187E02D
:10510000F50111928A95E9F77DCF882309F43DCF07
:105110008091B1018C1110C08091B001D8120CC0E7
:10512000E1100AC09683C8010E94412187E0F50181
:1051300011928A95E9F729CFC8010E946F1C882334
:1051400009F428CFEE2009F425CF8091B6018032F2
:1051500010F22091B0013091B1013A8329839C82F1
:105160008B829091B4019D831E828F83CE01019624
:10517000B0CF483C5105D0F6882309F40ECFFE2C61
:10518000EE2009F407CF8091B1018C1120C08091ED
:10519000B001D8121CC08091B60180FD0FC0982FBD
:1051A000907F61F08683903F31F0982F907F905FE1
:1051B0008F70892B8683C8010E94412187E0F80106
:1051C000A0EBB1E001900D928A95E1F7DECEC80127
:1051D0000E946F1C81117FCF8091B6018160809306
:1051E000B601C8010E944121D0CEABE1B0E0EBEFA7
:1051F000F8E20C940B334E8B5F8B688F798F8A8F1C
:105200009B8F192F91111092C1011D8A86E0FE011A
:105210007696DE011F9601900D928A95E1F70A8D30
:10522000002341F021E04F85588969897A89C801B6
:105230000E94921C0B8B1C8B87E0FE013F96DE01C7
:10524000189601900D928A95E1F7CE0108960E947A
:105250008E2781110CC087E0FE013896DE01119681
:1052600001900D928A95E1F78C8581110BC017E0B2
:105270008091E5029091AC02891331C06B96E4E015
:105280000C9427332091AC0230E0C901019687705D
:1052900099274091E5024817190699F097E0929FE7
:1052A000D001939FB00D1124A355BD4FFE0131963F
:1052B00001900D929A95E1F78093AC020E947614CA
:1052C000D6CF0E947E161092AC021092E50287E0C3
:1052D000E0EBF1E0DF011D928A95E9F7C8CF819FED
:1052E000C001112483559D4F0E948E27882331F2DF
:1052F0008091E50290E00196877099278093E502FE
:10530000B7CFA7E0B0E0E7E8F9E20C9404338E01F0
:105310000F5F1F4F87E0F80111928A95E9F786E544
:10532000C82E81E0D82EF12CE12CAA24A394B12C14
:10533000F60181916F018F3F09F443C0F894E82F83
:10534000E295EF70F0E021A18F70A50102C0440F3B
:10535000551F8A95E2F7CA01922F982B91A392A12B
:105360008095892382A3789400C0EDE5F1E0912C2B
:1053700031E021912F3F09F465C0A22FA295AF70B3
:10538000B0E090968C9190E02F7002C09595879533
:105390002A95E2F780FD56C0832F982A330F51E0FB
:1053A000E336F50731F7F601319780818F3F11F031
:1053B0000E94231280EA8A95F1F7F801EE0DFF1D95
:1053C0009082EFEFEE1AFE0AF7E0EF16F10409F013
:1053D000AFCF47E050E0B80189EC91E00E94103473
:1053E000892B91F187E0F801A9ECB1E001900D92D1
:1053F0008A95E1F781E08093C8010E945020909344
:10540000C7018093C6018091C6019091C7010E9497
:1054100041200597E8F047E050E069EC71E08CE44A
:1054200092E00E941034892BC1F087E0E9ECF1E0B2
:10543000ACE4B2E001900D928A95E1F781E0109220
:10544000C80107C080E0A9CF8091C8018111DBCFDE
:1054500080E02796EBE00C94203380E0F0CFA6E0CC
:10546000B0E0E5E3FAE20C940B330E9450208C018B
:105470008091C4019091C5018017910781F0198234
:105480001A820E945020682F49815A81792F80E02A
:1054900090E00E94F5281093C5010093C401269660
:1054A000E4E00C9427331F921FB61F9211248F93B0
:1054B0009F93AF93BF9380919002811113C080910D
:1054C000910290919202A0919302B0919402419620
:1054D000A11DB11D8093910290939202A09393021B
:1054E000B0939402BF91AF919F918F911F901FBE77
:1054F0001F901895CDB7DEB7A8970FB6F894DEBF0A
:105500000FBECDBF85B7806885BF85B7806885BF72
:1055100084B7877F84BF0FB6F894A8958091600008
:10552000886180936000109260000FBE80E890E078
:105530000FB6F89480936100909361000FBE81E2F2
:1055400092E190939101809390010E94A00F0E949C
:1055500041108091E20084608093E2007894809111
:10556000A2028823A1F01091E9001F709091EC0035
:10557000892F817090FD80E8182B1092E9008091AE
:10558000E80083FD0E9494161F701093E90082E0EA
:1055900084BD93E095BD9AEF97BD80936E000E9405
:1055A000B71C811102C00E94E61B06E511E09DE5D3
:1055B000E92E91E0F92ED8018D918D018F3F11F0E8
:1055C0000E942312E016F106B1F70DE511E083E623
:1055D000E82E81E0F82EF80181918F018F3F11F0C4
:1055E0000E942312E016F106B1F787E0ECE4F2E046
:1055F000DF01282F1D922A95E9F7E9ECF1E0DF01A0
:105600001D928A95E9F70E94831E811102C00E94B3
:105610008F1E82E090E00E941D348093D60184E0CA
:1056200090E00E942B349093D2018093D1010E948C
:105630008129BFEFE6E7F1E0B150E040F040E1F74B
:1056400000C000000E94812980914C0280FF08C0A8
:105650006FEF7FEF90E080E00E945F340E94FF10C8
:1056600083E090E00E941D340E944515109249028B
:1056700080E88093E9020E94FD316BE070E08BEEE0
:1056800095E10E94D01C8823E9F18091490265E0F0
:1056900070E081FD09C186EE95E10E94D01C88234F
:1056A00089F16DE070E084ED95E10E94D01C8823C3
:1056B00049F10E941011605A75418F4F9F4F6093BE
:1056C0008402709385028093860290938702E2EFB2
:1056D000F2E080E092E0DF019C011D922150304019
:1056E000E1F7F093F304E093F2048FEF9FEF9093D0
:1056F000F1028093F00281E0809389028093880216
:1057000010924A028091D301811173C00E94831EBE
:10571000811104C00E948F1E0E94581E88E090E0F4
:105720000E9425344B015C0184E290E00E941D340C
:10573000282F30E040E050E060E070E080E090E052
:1057400000E20E94B533282939294A295B29209390
:105750007C0230937D0240937E0250937F026093DF
:1057600080027093810280938202909383022E7F45
:1057700089F50E94581E88E090E00E9425346B0154
:105780007C0184E290E00E941D34282F30E040E04C
:1057900050E060E070E080E090E00E94B533B22F0E
:1057A000A32FF42FE52F5B0197018601BC29A12BC4
:1057B000FE29E32BB0937C02A0937D02F0937E023E
:1057C000E0937F0260938002B09281028093820214
:1057D000909383020E947C1110925A0280917C0265
:1057E00080FF04C060E086950E94CF2081E0809316
:1057F000D30180E091E090938D0280938C028091A0
:10580000A202FF24F39400E112E1853009F49DC067
:105810000E94812917EDE12E11E0F12E0CE4C02E3B
:1058200002E0D02E2EED31E0D601F70191918D915D
:105830002E173F0709F49CC09817C1F310E0882485
:105840008394D6010D916D01F70191907F0190161F
:1058500019F19026B12CAA24A394892D8A21A1F0B4
:10586000B9A21AA30E9450209CA38BA38DA291E001
:10587000802F8A2109F490E09EA349A15AA16BA12F
:105880007CA18DA10E94F528B394AA0CF6E0BF126A
:10589000E4CFF701319700831F5F173091F60E9424
:1058A0001011DD24D39469C081EE95E1F6CE80918C
:1058B000A202843009F439C010925A028091D501B5
:1058C00081110DC0F092D50180917C02982F9170CA
:1058D0009093D4018E7F80937C020E940A1A0E94CA
:1058E000FA1C1092900288E190E0A0E40FB6F894C0
:1058F000A895809360000FBEA093600083B7817F5E
:10590000846083BF83B7816083BF7894889583B7B1
:105910008E7F83BF0FB6F894A89580916000886150
:1059200080936000109260000FBE8091A1028823D6
:1059300061F00E948129ECE4F2E0819181113EC581
:1059400023E532E02E173F07C1F78091A202853090
:1059500009F4ADCF0E947E160E9466111092D50107
:105960008091D40181110E9412210E94B92050CF50
:10597000981364CF0E942F2AD12C8090E901909037
:10598000EA01092C000CAA08BB088091080190E0EC
:10599000E9EEF1E021E030E03296821793070CF057
:1059A0000DC28091E5019091E601A091E701B091CF
:1059B000E8016FB7F8944090910250909202609085
:1059C0009302709094026FBF481A590A6A0A7B0AC0
:1059D0001091080129EC421651046104710414F17C
:1059E0008091E40190E0019669E170E00E9440330B
:1059F0008093E401880F991FFC01E751FE4F11824B
:105A00001082812F183108F087E18F5F80930801A1
:105A10000E9410116093E5017093E6018093E70105
:105A20009093E80132E083169104A104B1040CF4D0
:105A3000D2C1A0E6BAEEA50194010E94A2334B01A7
:105A40005C0188EC189F90011124032E000C440B7C
:105A5000550B240D351D461D571DA5E0B0E00E94D5
:105A6000A2339B01AC01C501B4010E94543349012A
:105A70005A0191EF89169104A104B1042CF0A0EF12
:105A80008A2E912CA12CB12C8091E0019091E10102
:105A9000A091E201B091E3012FB7F89440909102F8
:105AA0005090920260909302709094022FBF481A17
:105AB000590A6A0A7B0AA5E64A1651046104710470
:105AC00084F00E9410116093E0017093E1018093D3
:105AD000E2019093E301809123028093DF018092A1
